{
  "_format": "hh-sol-artifact-1",
  "contractName": "LootToadsNFT",
  "sourceName": "contracts/newNFT.sol",
  "abi": [
    {
      "inputs": [
        {
          "internalType": "string",
          "name": "_name",
          "type": "string"
        },
        {
          "internalType": "string",
          "name": "_symbol",
          "type": "string"
        },
        {
          "internalType": "string",
          "name": "_initBaseURI",
          "type": "string"
        }
      ],
      "stateMutability": "nonpayable",
      "type": "constructor"
    },
    {
      "anonymous": false,
      "inputs": [
        {
          "indexed": true,
          "internalType": "address",
          "name": "owner",
          "type": "address"
        },
        {
          "indexed": true,
          "internalType": "address",
          "name": "approved",
          "type": "address"
        },
        {
          "indexed": true,
          "internalType": "uint256",
          "name": "tokenId",
          "type": "uint256"
        }
      ],
      "name": "Approval",
      "type": "event"
    },
    {
      "anonymous": false,
      "inputs": [
        {
          "indexed": true,
          "internalType": "address",
          "name": "owner",
          "type": "address"
        },
        {
          "indexed": true,
          "internalType": "address",
          "name": "operator",
          "type": "address"
        },
        {
          "indexed": false,
          "internalType": "bool",
          "name": "approved",
          "type": "bool"
        }
      ],
      "name": "ApprovalForAll",
      "type": "event"
    },
    {
      "anonymous": false,
      "inputs": [
        {
          "indexed": true,
          "internalType": "address",
          "name": "previousOwner",
          "type": "address"
        },
        {
          "indexed": true,
          "internalType": "address",
          "name": "newOwner",
          "type": "address"
        }
      ],
      "name": "OwnershipTransferred",
      "type": "event"
    },
    {
      "anonymous": false,
      "inputs": [
        {
          "indexed": true,
          "internalType": "address",
          "name": "from",
          "type": "address"
        },
        {
          "indexed": true,
          "internalType": "address",
          "name": "to",
          "type": "address"
        },
        {
          "indexed": true,
          "internalType": "uint256",
          "name": "tokenId",
          "type": "uint256"
        }
      ],
      "name": "Transfer",
      "type": "event"
    },
    {
      "inputs": [
        {
          "internalType": "address[100]",
          "name": "_users",
          "type": "address[100]"
        }
      ],
      "name": "add100PresaleUsers",
      "outputs": [],
      "stateMutability": "nonpayable",
      "type": "function"
    },
    {
      "inputs": [
        {
          "internalType": "address",
          "name": "_user",
          "type": "address"
        }
      ],
      "name": "addPresaleUser",
      "outputs": [],
      "stateMutability": "nonpayable",
      "type": "function"
    },
    {
      "inputs": [
        {
          "internalType": "address",
          "name": "to",
          "type": "address"
        },
        {
          "internalType": "uint256",
          "name": "tokenId",
          "type": "uint256"
        }
      ],
      "name": "approve",
      "outputs": [],
      "stateMutability": "nonpayable",
      "type": "function"
    },
    {
      "inputs": [
        {
          "internalType": "address",
          "name": "owner",
          "type": "address"
        }
      ],
      "name": "balanceOf",
      "outputs": [
        {
          "internalType": "uint256",
          "name": "",
          "type": "uint256"
        }
      ],
      "stateMutability": "view",
      "type": "function"
    },
    {
      "inputs": [],
      "name": "baseExtension",
      "outputs": [
        {
          "internalType": "string",
          "name": "",
          "type": "string"
        }
      ],
      "stateMutability": "view",
      "type": "function"
    },
    {
      "inputs": [],
      "name": "baseURI",
      "outputs": [
        {
          "internalType": "string",
          "name": "",
          "type": "string"
        }
      ],
      "stateMutability": "view",
      "type": "function"
    },
    {
      "inputs": [],
      "name": "cost",
      "outputs": [
        {
          "internalType": "uint256",
          "name": "",
          "type": "uint256"
        }
      ],
      "stateMutability": "view",
      "type": "function"
    },
    {
      "inputs": [
        {
          "internalType": "uint256",
          "name": "tokenId",
          "type": "uint256"
        }
      ],
      "name": "getApproved",
      "outputs": [
        {
          "internalType": "address",
          "name": "",
          "type": "address"
        }
      ],
      "stateMutability": "view",
      "type": "function"
    },
    {
      "inputs": [
        {
          "internalType": "address",
          "name": "owner",
          "type": "address"
        },
        {
          "internalType": "address",
          "name": "operator",
          "type": "address"
        }
      ],
      "name": "isApprovedForAll",
      "outputs": [
        {
          "internalType": "bool",
          "name": "",
          "type": "bool"
        }
      ],
      "stateMutability": "view",
      "type": "function"
    },
    {
      "inputs": [],
      "name": "maxMintAmount",
      "outputs": [
        {
          "internalType": "uint256",
          "name": "",
          "type": "uint256"
        }
      ],
      "stateMutability": "view",
      "type": "function"
    },
    {
      "inputs": [],
      "name": "maxSupply",
      "outputs": [
        {
          "internalType": "uint256",
          "name": "",
          "type": "uint256"
        }
      ],
      "stateMutability": "view",
      "type": "function"
    },
    {
      "inputs": [
        {
          "internalType": "address",
          "name": "_to",
          "type": "address"
        },
        {
          "internalType": "uint256",
          "name": "_mintAmount",
          "type": "uint256"
        }
      ],
      "name": "mint",
      "outputs": [],
      "stateMutability": "payable",
      "type": "function"
    },
    {
      "inputs": [],
      "name": "name",
      "outputs": [
        {
          "internalType": "string",
          "name": "",
          "type": "string"
        }
      ],
      "stateMutability": "view",
      "type": "function"
    },
    {
      "inputs": [],
      "name": "owner",
      "outputs": [
        {
          "internalType": "address",
          "name": "",
          "type": "address"
        }
      ],
      "stateMutability": "view",
      "type": "function"
    },
    {
      "inputs": [
        {
          "internalType": "uint256",
          "name": "tokenId",
          "type": "uint256"
        }
      ],
      "name": "ownerOf",
      "outputs": [
        {
          "internalType": "address",
          "name": "",
          "type": "address"
        }
      ],
      "stateMutability": "view",
      "type": "function"
    },
    {
      "inputs": [
        {
          "internalType": "bool",
          "name": "_state",
          "type": "bool"
        }
      ],
      "name": "pause",
      "outputs": [],
      "stateMutability": "nonpayable",
      "type": "function"
    },
    {
      "inputs": [],
      "name": "paused",
      "outputs": [
        {
          "internalType": "bool",
          "name": "",
          "type": "bool"
        }
      ],
      "stateMutability": "view",
      "type": "function"
    },
    {
      "inputs": [],
      "name": "presaleCost",
      "outputs": [
        {
          "internalType": "uint256",
          "name": "",
          "type": "uint256"
        }
      ],
      "stateMutability": "view",
      "type": "function"
    },
    {
      "inputs": [
        {
          "internalType": "address",
          "name": "",
          "type": "address"
        }
      ],
      "name": "presaleWallets",
      "outputs": [
        {
          "internalType": "bool",
          "name": "",
          "type": "bool"
        }
      ],
      "stateMutability": "view",
      "type": "function"
    },
    {
      "inputs": [
        {
          "internalType": "address",
          "name": "_user",
          "type": "address"
        }
      ],
      "name": "removePresaleUser",
      "outputs": [],
      "stateMutability": "nonpayable",
      "type": "function"
    },
    {
      "inputs": [
        {
          "internalType": "address",
          "name": "_user",
          "type": "address"
        }
      ],
      "name": "removeWhitelistUser",
      "outputs": [],
      "stateMutability": "nonpayable",
      "type": "function"
    },
    {
      "inputs": [],
      "name": "renounceOwnership",
      "outputs": [],
      "stateMutability": "nonpayable",
      "type": "function"
    },
    {
      "inputs": [
        {
          "internalType": "address",
          "name": "from",
          "type": "address"
        },
        {
          "internalType": "address",
          "name": "to",
          "type": "address"
        },
        {
          "internalType": "uint256",
          "name": "tokenId",
          "type": "uint256"
        }
      ],
      "name": "safeTransferFrom",
      "outputs": [],
      "stateMutability": "nonpayable",
      "type": "function"
    },
    {
      "inputs": [
        {
          "internalType": "address",
          "name": "from",
          "type": "address"
        },
        {
          "internalType": "address",
          "name": "to",
          "type": "address"
        },
        {
          "internalType": "uint256",
          "name": "tokenId",
          "type": "uint256"
        },
        {
          "internalType": "bytes",
          "name": "_data",
          "type": "bytes"
        }
      ],
      "name": "safeTransferFrom",
      "outputs": [],
      "stateMutability": "nonpayable",
      "type": "function"
    },
    {
      "inputs": [
        {
          "internalType": "address",
          "name": "operator",
          "type": "address"
        },
        {
          "internalType": "bool",
          "name": "approved",
          "type": "bool"
        }
      ],
      "name": "setApprovalForAll",
      "outputs": [],
      "stateMutability": "nonpayable",
      "type": "function"
    },
    {
      "inputs": [
        {
          "internalType": "string",
          "name": "_newBaseExtension",
          "type": "string"
        }
      ],
      "name": "setBaseExtension",
      "outputs": [],
      "stateMutability": "nonpayable",
      "type": "function"
    },
    {
      "inputs": [
        {
          "internalType": "string",
          "name": "_newBaseURI",
          "type": "string"
        }
      ],
      "name": "setBaseURI",
      "outputs": [],
      "stateMutability": "nonpayable",
      "type": "function"
    },
    {
      "inputs": [
        {
          "internalType": "uint256",
          "name": "_newCost",
          "type": "uint256"
        }
      ],
      "name": "setCost",
      "outputs": [],
      "stateMutability": "nonpayable",
      "type": "function"
    },
    {
      "inputs": [
        {
          "internalType": "uint256",
          "name": "_newCost",
          "type": "uint256"
        }
      ],
      "name": "setPresaleCost",
      "outputs": [],
      "stateMutability": "nonpayable",
      "type": "function"
    },
    {
      "inputs": [
        {
          "internalType": "uint256",
          "name": "_newmaxMintAmount",
          "type": "uint256"
        }
      ],
      "name": "setmaxMintAmount",
      "outputs": [],
      "stateMutability": "nonpayable",
      "type": "function"
    },
    {
      "inputs": [
        {
          "internalType": "bytes4",
          "name": "interfaceId",
          "type": "bytes4"
        }
      ],
      "name": "supportsInterface",
      "outputs": [
        {
          "internalType": "bool",
          "name": "",
          "type": "bool"
        }
      ],
      "stateMutability": "view",
      "type": "function"
    },
    {
      "inputs": [],
      "name": "symbol",
      "outputs": [
        {
          "internalType": "string",
          "name": "",
          "type": "string"
        }
      ],
      "stateMutability": "view",
      "type": "function"
    },
    {
      "inputs": [
        {
          "internalType": "uint256",
          "name": "index",
          "type": "uint256"
        }
      ],
      "name": "tokenByIndex",
      "outputs": [
        {
          "internalType": "uint256",
          "name": "",
          "type": "uint256"
        }
      ],
      "stateMutability": "view",
      "type": "function"
    },
    {
      "inputs": [
        {
          "internalType": "address",
          "name": "owner",
          "type": "address"
        },
        {
          "internalType": "uint256",
          "name": "index",
          "type": "uint256"
        }
      ],
      "name": "tokenOfOwnerByIndex",
      "outputs": [
        {
          "internalType": "uint256",
          "name": "",
          "type": "uint256"
        }
      ],
      "stateMutability": "view",
      "type": "function"
    },
    {
      "inputs": [
        {
          "internalType": "uint256",
          "name": "tokenId",
          "type": "uint256"
        }
      ],
      "name": "tokenURI",
      "outputs": [
        {
          "internalType": "string",
          "name": "",
          "type": "string"
        }
      ],
      "stateMutability": "view",
      "type": "function"
    },
    {
      "inputs": [],
      "name": "totalSupply",
      "outputs": [
        {
          "internalType": "uint256",
          "name": "",
          "type": "uint256"
        }
      ],
      "stateMutability": "view",
      "type": "function"
    },
    {
      "inputs": [
        {
          "internalType": "address",
          "name": "from",
          "type": "address"
        },
        {
          "internalType": "address",
          "name": "to",
          "type": "address"
        },
        {
          "internalType": "uint256",
          "name": "tokenId",
          "type": "uint256"
        }
      ],
      "name": "transferFrom",
      "outputs": [],
      "stateMutability": "nonpayable",
      "type": "function"
    },
    {
      "inputs": [
        {
          "internalType": "address",
          "name": "newOwner",
          "type": "address"
        }
      ],
      "name": "transferOwnership",
      "outputs": [],
      "stateMutability": "nonpayable",
      "type": "function"
    },
    {
      "inputs": [
        {
          "internalType": "address",
          "name": "_owner",
          "type": "address"
        }
      ],
      "name": "walletOfOwner",
      "outputs": [
        {
          "internalType": "uint256[]",
          "name": "",
          "type": "uint256[]"
        }
      ],
      "stateMutability": "view",
      "type": "function"
    },
    {
      "inputs": [
        {
          "internalType": "address",
          "name": "_user",
          "type": "address"
        }
      ],
      "name": "whitelistUser",
      "outputs": [],
      "stateMutability": "nonpayable",
      "type": "function"
    },
    {
      "inputs": [
        {
          "internalType": "address",
          "name": "",
          "type": "address"
        }
      ],
      "name": "whitelisted",
      "outputs": [
        {
          "internalType": "bool",
          "name": "",
          "type": "bool"
        }
      ],
      "stateMutability": "view",
      "type": "function"
    },
    {
      "inputs": [],
      "name": "withdraw",
      "outputs": [],
      "stateMutability": "payable",
      "type": "function"
    }
  ],
  "bytecode": "0x60806040526040518060400160405280600581526020017f2e6a736f6e000000000000000000000000000000000000000000000000000000815250600c90805190602001906200005192919062000df0565b506000600d556000600e55611b39600f5560056010556001601160006101000a81548160ff0219169083151502179055503480156200008f57600080fd5b5060405162005e6338038062005e638339818101604052810190620000b5919062000f55565b82828160009080519060200190620000cf92919062000df0565b508060019080519060200190620000e892919062000df0565b5050506200010b620000ff6200013860201b60201c565b6200014060201b60201c565b6200011c816200020660201b60201c565b6200012f336001620002b160201b60201c565b505050620015f5565b600033905090565b6000600a60009054906101000a900473ffffffffffffffffffffffffffffffffffffffff16905081600a60006101000a81548173ffffffffffffffffffffffffffffffffffffffff021916908373ffffffffffffffffffffffffffffffffffffffff1602179055508173ffffffffffffffffffffffffffffffffffffffff168173ffffffffffffffffffffffffffffffffffffffff167f8be0079c531659141344cd1fd0a4f28419497f9722a3daafe3b4186f6b6457e060405160405180910390a35050565b620002166200013860201b60201c565b73ffffffffffffffffffffffffffffffffffffffff166200023c6200036560201b60201c565b73ffffffffffffffffffffffffffffffffffffffff161462000295576040517f08c379a00000000000000000000000000000000000000000000000000000000081526004016200028c90620012cb565b60405180910390fd5b80600b9080519060200190620002ad92919062000df0565b5050565b6000620002c36200038f60201b60201c565b9050601160009054906101000a900460ff1615620002e057600080fd5b60008211620002ee57600080fd5b601054821115620002fe57600080fd5b600f5482826200030f919062001381565b11156200031b57600080fd5b6000600190505b8281116200035f57620003498482846200033d919062001381565b6200039c60201b60201c565b80806200035690620014ef565b91505062000322565b50505050565b6000600a60009054906101000a900473ffffffffffffffffffffffffffffffffffffffff16905090565b6000600880549050905090565b620003be828260405180602001604052806000815250620003c260201b60201c565b5050565b620003d483836200043060201b60201c565b620003e960008484846200061660201b60201c565b6200042b576040517f08c379a0000000000000000000000000000000000000000000000000000000008152600401620004229062001243565b60405180910390fd5b505050565b600073ffffffffffffffffffffffffffffffffffffffff168273ffffffffffffffffffffffffffffffffffffffff161415620004a3576040517f08c379a00000000000000000000000000000000000000000000000000000000081526004016200049a90620012a9565b60405180910390fd5b620004b481620007d060201b60201c565b15620004f7576040517f08c379a0000000000000000000000000000000000000000000000000000000008152600401620004ee9062001265565b60405180910390fd5b6200050b600083836200083c60201b60201c565b6001600360008473ffffffffffffffffffffffffffffffffffffffff1673ffffffffffffffffffffffffffffffffffffffff16815260200190815260200160002060008282546200055d919062001381565b92505081905550816002600083815260200190815260200160002060006101000a81548173ffffffffffffffffffffffffffffffffffffffff021916908373ffffffffffffffffffffffffffffffffffffffff160217905550808273ffffffffffffffffffffffffffffffffffffffff16600073ffffffffffffffffffffffffffffffffffffffff167fddf252ad1be2c89b69c2b068fc378daa952ba7f163c4a11628f55a4df523b3ef60405160405180910390a45050565b6000620006448473ffffffffffffffffffffffffffffffffffffffff166200098360201b62001f871760201c565b15620007c3578373ffffffffffffffffffffffffffffffffffffffff1663150b7a02620006766200013860201b60201c565b8786866040518563ffffffff1660e01b81526004016200069a9493929190620011ef565b602060405180830381600087803b158015620006b557600080fd5b505af1925050508015620006e957506040513d601f19601f82011682018060405250810190620006e6919062000f29565b60015b62000772573d80600081146200071c576040519150601f19603f3d011682016040523d82523d6000602084013e62000721565b606091505b506000815114156200076a576040517f08c379a0000000000000000000000000000000000000000000000000000000008152600401620007619062001243565b60405180910390fd5b805181602001fd5b63150b7a0260e01b7bffffffffffffffffffffffffffffffffffffffffffffffffffffffff1916817bffffffffffffffffffffffffffffffffffffffffffffffffffffffff191614915050620007c8565b600190505b949350505050565b60008073ffffffffffffffffffffffffffffffffffffffff166002600084815260200190815260200160002060009054906101000a900473ffffffffffffffffffffffffffffffffffffffff1673ffffffffffffffffffffffffffffffffffffffff1614159050919050565b620008548383836200099660201b62001f9a1760201c565b600073ffffffffffffffffffffffffffffffffffffffff168373ffffffffffffffffffffffffffffffffffffffff161415620008a1576200089b816200099b60201b60201c565b620008e9565b8173ffffffffffffffffffffffffffffffffffffffff168373ffffffffffffffffffffffffffffffffffffffff1614620008e857620008e78382620009e460201b60201c565b5b5b600073ffffffffffffffffffffffffffffffffffffffff168273ffffffffffffffffffffffffffffffffffffffff1614156200093657620009308162000b6160201b60201c565b6200097e565b8273ffffffffffffffffffffffffffffffffffffffff168273ffffffffffffffffffffffffffffffffffffffff16146200097d576200097c828262000ca960201b60201c565b5b5b505050565b600080823b905060008111915050919050565b505050565b6008805490506009600083815260200190815260200160002081905550600881908060018154018082558091505060019003906000526020600020016000909190919091505550565b60006001620009fe8462000d3560201b620016d91760201c565b62000a0a9190620013de565b905060006007600084815260200190815260200160002054905081811462000af0576000600660008673ffffffffffffffffffffffffffffffffffffffff1673ffffffffffffffffffffffffffffffffffffffff168152602001908152602001600020600084815260200190815260200160002054905080600660008773ffffffffffffffffffffffffffffffffffffffff1673ffffffffffffffffffffffffffffffffffffffff168152602001908152602001600020600084815260200190815260200160002081905550816007600083815260200190815260200160002081905550505b6007600084815260200190815260200160002060009055600660008573ffffffffffffffffffffffffffffffffffffffff1673ffffffffffffffffffffffffffffffffffffffff16815260200190815260200160002060008381526020019081526020016000206000905550505050565b6000600160088054905062000b779190620013de565b905060006009600084815260200190815260200160002054905060006008838154811062000bce577f4e487b7100000000000000000000000000000000000000000000000000000000600052603260045260246000fd5b90600052602060002001549050806008838154811062000c17577f4e487b7100000000000000000000000000000000000000000000000000000000600052603260045260246000fd5b90600052602060002001819055508160096000838152602001908152602001600020819055506009600085815260200190815260200160002060009055600880548062000c8d577f4e487b7100000000000000000000000000000000000000000000000000000000600052603160045260246000fd5b6001900381819060005260206000200160009055905550505050565b600062000cc18362000d3560201b620016d91760201c565b905081600660008573ffffffffffffffffffffffffffffffffffffffff1673ffffffffffffffffffffffffffffffffffffffff168152602001908152602001600020600083815260200190815260200160002081905550806007600084815260200190815260200160002081905550505050565b60008073ffffffffffffffffffffffffffffffffffffffff168273ffffffffffffffffffffffffffffffffffffffff16141562000da9576040517f08c379a000000000000000000000000000000000000000000000000000000000815260040162000da09062001287565b60405180910390fd5b600360008373ffffffffffffffffffffffffffffffffffffffff1673ffffffffffffffffffffffffffffffffffffffff168152602001908152602001600020549050919050565b82805462000dfe90620014b9565b90600052602060002090601f01602090048101928262000e22576000855562000e6e565b82601f1062000e3d57805160ff191683800117855562000e6e565b8280016001018555821562000e6e579182015b8281111562000e6d57825182559160200191906001019062000e50565b5b50905062000e7d919062000e81565b5090565b5b8082111562000e9c57600081600090555060010162000e82565b5090565b600062000eb762000eb18462001321565b620012ed565b90508281526020810184848401111562000ed057600080fd5b62000edd84828562001483565b509392505050565b60008151905062000ef681620015db565b92915050565b600082601f83011262000f0e57600080fd5b815162000f2084826020860162000ea0565b91505092915050565b60006020828403121562000f3c57600080fd5b600062000f4c8482850162000ee5565b91505092915050565b60008060006060848603121562000f6b57600080fd5b600084015167ffffffffffffffff81111562000f8657600080fd5b62000f948682870162000efc565b935050602084015167ffffffffffffffff81111562000fb257600080fd5b62000fc08682870162000efc565b925050604084015167ffffffffffffffff81111562000fde57600080fd5b62000fec8682870162000efc565b9150509250925092565b620010018162001419565b82525050565b6000620010148262001354565b6200102081856200135f565b93506200103281856020860162001483565b6200103d81620015ca565b840191505092915050565b60006200105760328362001370565b91507f4552433732313a207472616e7366657220746f206e6f6e20455243373231526560008301527f63656976657220696d706c656d656e74657200000000000000000000000000006020830152604082019050919050565b6000620010bf601c8362001370565b91507f4552433732313a20746f6b656e20616c7265616479206d696e746564000000006000830152602082019050919050565b600062001101602a8362001370565b91507f4552433732313a2062616c616e636520717565727920666f7220746865207a6560008301527f726f2061646472657373000000000000000000000000000000000000000000006020830152604082019050919050565b60006200116960208362001370565b91507f4552433732313a206d696e7420746f20746865207a65726f20616464726573736000830152602082019050919050565b6000620011ab60208362001370565b91507f4f776e61626c653a2063616c6c6572206973206e6f7420746865206f776e65726000830152602082019050919050565b620011e98162001479565b82525050565b600060808201905062001206600083018762000ff6565b62001215602083018662000ff6565b620012246040830185620011de565b818103606083015262001238818462001007565b905095945050505050565b600060208201905081810360008301526200125e8162001048565b9050919050565b600060208201905081810360008301526200128081620010b0565b9050919050565b60006020820190508181036000830152620012a281620010f2565b9050919050565b60006020820190508181036000830152620012c4816200115a565b9050919050565b60006020820190508181036000830152620012e6816200119c565b9050919050565b6000604051905081810181811067ffffffffffffffff821117156200131757620013166200159b565b5b8060405250919050565b600067ffffffffffffffff8211156200133f576200133e6200159b565b5b601f19601f8301169050602081019050919050565b600081519050919050565b600082825260208201905092915050565b600082825260208201905092915050565b60006200138e8262001479565b91506200139b8362001479565b9250827fffffffffffffffffffffffffffffffffffffffffffffffffffffffffffffffff03821115620013d357620013d26200153d565b5b828201905092915050565b6000620013eb8262001479565b9150620013f88362001479565b9250828210156200140e576200140d6200153d565b5b828203905092915050565b6000620014268262001459565b9050919050565b60007fffffffff0000000000000000000000000000000000000000000000000000000082169050919050565b600073ffffffffffffffffffffffffffffffffffffffff82169050919050565b6000819050919050565b60005b83811015620014a357808201518184015260208101905062001486565b83811115620014b3576000848401525b50505050565b60006002820490506001821680620014d257607f821691505b60208210811415620014e957620014e86200156c565b5b50919050565b6000620014fc8262001479565b91507fffffffffffffffffffffffffffffffffffffffffffffffffffffffffffffffff8214156200153257620015316200153d565b5b600182019050919050565b7f4e487b7100000000000000000000000000000000000000000000000000000000600052601160045260246000fd5b7f4e487b7100000000000000000000000000000000000000000000000000000000600052602260045260246000fd5b7f4e487b7100000000000000000000000000000000000000000000000000000000600052604160045260246000fd5b6000601f19601f8301169050919050565b620015e6816200142d565b8114620015f257600080fd5b50565b61485e80620016056000396000f3fe6080604052600436106102515760003560e01c806355f804b311610139578063a22cb465116100b6578063d5abeb011161007a578063d5abeb01146108a4578063d936547e146108cf578063da3ef23f1461090c578063e985e9c514610935578063ed931e1714610972578063f2fde38b1461099b57610251565b8063a22cb465146107c1578063b2f3e85e146107ea578063b88d4fde14610813578063c66828621461083c578063c87b56dd1461086757610251565b8063715018a6116100fd578063715018a6146107025780637f00c7a6146107195780638da5cb5b146107425780638fdcf9421461076d57806395d89b411461079657610251565b806355f804b3146106095780635c975abb146106325780636352211e1461065d5780636c0360eb1461069a57806370a08231146106c557610251565b80632f745c59116101d257806342842e0e1161019657806342842e0e146104eb578063438b63001461051457806344a0d68a146105515780634a4c560d1461057a5780634f6ccce7146105a3578063546857c7146105e057610251565b80632f745c591461042257806330b2264e1461045f57806330cc7ae01461049c5780633ccfd60b146104c557806340c10f19146104cf57610251565b806313faede61161021957806313faede61461034d57806318160ddd14610378578063239c70ae146103a357806323b872dd146103ce5780632a23d07d146103f757610251565b806301ffc9a71461025657806302329a291461029357806306fdde03146102bc578063081812fc146102e7578063095ea7b314610324575b600080fd5b34801561026257600080fd5b5061027d600480360381019061027891906136ea565b6109c4565b60405161028a91906140f7565b60405180910390f35b34801561029f57600080fd5b506102ba60048036038101906102b591906136c1565b610a3e565b005b3480156102c857600080fd5b506102d1610ad7565b6040516102de9190614112565b60405180910390f35b3480156102f357600080fd5b5061030e6004803603810190610309919061377d565b610b69565b60405161031b919061406e565b60405180910390f35b34801561033057600080fd5b5061034b6004803603810190610346919061365b565b610bee565b005b34801561035957600080fd5b50610362610d06565b60405161036f9190614374565b60405180910390f35b34801561038457600080fd5b5061038d610d0c565b60405161039a9190614374565b60405180910390f35b3480156103af57600080fd5b506103b8610d19565b6040516103c59190614374565b60405180910390f35b3480156103da57600080fd5b506103f560048036038101906103f09190613555565b610d1f565b005b34801561040357600080fd5b5061040c610d7f565b6040516104199190614374565b60405180910390f35b34801561042e57600080fd5b506104496004803603810190610444919061365b565b610d85565b6040516104569190614374565b60405180910390f35b34801561046b57600080fd5b50610486600480360381019061048191906134f0565b610e2a565b60405161049391906140f7565b60405180910390f35b3480156104a857600080fd5b506104c360048036038101906104be91906134f0565b610e4a565b005b6104cd610f21565b005b6104e960048036038101906104e4919061365b565b611016565b005b3480156104f757600080fd5b50610512600480360381019061050d9190613555565b6110ae565b005b34801561052057600080fd5b5061053b600480360381019061053691906134f0565b6110ce565b60405161054891906140d5565b60405180910390f35b34801561055d57600080fd5b506105786004803603810190610573919061377d565b6111c8565b005b34801561058657600080fd5b506105a1600480360381019061059c91906134f0565b61124e565b005b3480156105af57600080fd5b506105ca60048036038101906105c5919061377d565b611325565b6040516105d79190614374565b60405180910390f35b3480156105ec57600080fd5b5061060760048036038101906106029190613697565b6113bc565b005b34801561061557600080fd5b50610630600480360381019061062b919061373c565b6114f0565b005b34801561063e57600080fd5b50610647611586565b60405161065491906140f7565b60405180910390f35b34801561066957600080fd5b50610684600480360381019061067f919061377d565b611599565b604051610691919061406e565b60405180910390f35b3480156106a657600080fd5b506106af61164b565b6040516106bc9190614112565b60405180910390f35b3480156106d157600080fd5b506106ec60048036038101906106e791906134f0565b6116d9565b6040516106f99190614374565b60405180910390f35b34801561070e57600080fd5b50610717611791565b005b34801561072557600080fd5b50610740600480360381019061073b919061377d565b611819565b005b34801561074e57600080fd5b5061075761189f565b604051610764919061406e565b60405180910390f35b34801561077957600080fd5b50610794600480360381019061078f919061377d565b6118c9565b005b3480156107a257600080fd5b506107ab61194f565b6040516107b89190614112565b60405180910390f35b3480156107cd57600080fd5b506107e860048036038101906107e3919061361f565b6119e1565b005b3480156107f657600080fd5b50610811600480360381019061080c91906134f0565b6119f7565b005b34801561081f57600080fd5b5061083a600480360381019061083591906135a4565b611ace565b005b34801561084857600080fd5b50610851611b30565b60405161085e9190614112565b60405180910390f35b34801561087357600080fd5b5061088e6004803603810190610889919061377d565b611bbe565b60405161089b9190614112565b60405180910390f35b3480156108b057600080fd5b506108b9611c68565b6040516108c69190614374565b60405180910390f35b3480156108db57600080fd5b506108f660048036038101906108f191906134f0565b611c6e565b60405161090391906140f7565b60405180910390f35b34801561091857600080fd5b50610933600480360381019061092e919061373c565b611c8e565b005b34801561094157600080fd5b5061095c60048036038101906109579190613519565b611d24565b60405161096991906140f7565b60405180910390f35b34801561097e57600080fd5b50610999600480360381019061099491906134f0565b611db8565b005b3480156109a757600080fd5b506109c260048036038101906109bd91906134f0565b611e8f565b005b60007f780e9d63000000000000000000000000000000000000000000000000000000007bffffffffffffffffffffffffffffffffffffffffffffffffffffffff1916827bffffffffffffffffffffffffffffffffffffffffffffffffffffffff19161480610a375750610a3682611f9f565b5b9050919050565b610a46612081565b73ffffffffffffffffffffffffffffffffffffffff16610a6461189f565b73ffffffffffffffffffffffffffffffffffffffff1614610aba576040517f08c379a0000000000000000000000000000000000000000000000000000000008152600401610ab1906142b4565b60405180910390fd5b80601160006101000a81548160ff02191690831515021790555050565b606060008054610ae690614653565b80601f0160208091040260200160405190810160405280929190818152602001828054610b1290614653565b8015610b5f5780601f10610b3457610100808354040283529160200191610b5f565b820191906000526020600020905b815481529060010190602001808311610b4257829003601f168201915b5050505050905090565b6000610b7482612089565b610bb3576040517f08c379a0000000000000000000000000000000000000000000000000000000008152600401610baa90614294565b60405180910390fd5b6004600083815260200190815260200160002060009054906101000a900473ffffffffffffffffffffffffffffffffffffffff169050919050565b6000610bf982611599565b90508073ffffffffffffffffffffffffffffffffffffffff168373ffffffffffffffffffffffffffffffffffffffff161415610c6a576040517f08c379a0000000000000000000000000000000000000000000000000000000008152600401610c6190614314565b60405180910390fd5b8073ffffffffffffffffffffffffffffffffffffffff16610c89612081565b73ffffffffffffffffffffffffffffffffffffffff161480610cb85750610cb781610cb2612081565b611d24565b5b610cf7576040517f08c379a0000000000000000000000000000000000000000000000000000000008152600401610cee90614214565b60405180910390fd5b610d0183836120f5565b505050565b600d5481565b6000600880549050905090565b60105481565b610d30610d2a612081565b826121ae565b610d6f576040517f08c379a0000000000000000000000000000000000000000000000000000000008152600401610d6690614334565b60405180910390fd5b610d7a83838361228c565b505050565b600e5481565b6000610d90836116d9565b8210610dd1576040517f08c379a0000000000000000000000000000000000000000000000000000000008152600401610dc890614134565b60405180910390fd5b600660008473ffffffffffffffffffffffffffffffffffffffff1673ffffffffffffffffffffffffffffffffffffffff168152602001908152602001600020600083815260200190815260200160002054905092915050565b60136020528060005260406000206000915054906101000a900460ff1681565b610e52612081565b73ffffffffffffffffffffffffffffffffffffffff16610e7061189f565b73ffffffffffffffffffffffffffffffffffffffff1614610ec6576040517f08c379a0000000000000000000000000000000000000000000000000000000008152600401610ebd906142b4565b60405180910390fd5b6000601260008373ffffffffffffffffffffffffffffffffffffffff1673ffffffffffffffffffffffffffffffffffffffff16815260200190815260200160002060006101000a81548160ff02191690831515021790555050565b610f29612081565b73ffffffffffffffffffffffffffffffffffffffff16610f4761189f565b73ffffffffffffffffffffffffffffffffffffffff1614610f9d576040517f08c379a0000000000000000000000000000000000000000000000000000000008152600401610f94906142b4565b60405180910390fd5b60003373ffffffffffffffffffffffffffffffffffffffff1647604051610fc390614059565b60006040518083038185875af1925050503d8060008114611000576040519150601f19603f3d011682016040523d82523d6000602084013e611005565b606091505b505090508061101357600080fd5b50565b6000611020610d0c565b9050601160009054906101000a900460ff161561103c57600080fd5b6000821161104957600080fd5b60105482111561105857600080fd5b600f54828261106791906144e2565b111561107257600080fd5b6000600190505b8281116110a85761109584828461109091906144e2565b6124e8565b80806110a090614685565b915050611079565b50505050565b6110c983838360405180602001604052806000815250611ace565b505050565b606060006110db836116d9565b905060008167ffffffffffffffff81111561111f577f4e487b7100000000000000000000000000000000000000000000000000000000600052604160045260246000fd5b60405190808252806020026020018201604052801561114d5781602001602082028036833780820191505090505b50905060005b828110156111bd576111658582610d85565b82828151811061119e577f4e487b7100000000000000000000000000000000000000000000000000000000600052603260045260246000fd5b60200260200101818152505080806111b590614685565b915050611153565b508092505050919050565b6111d0612081565b73ffffffffffffffffffffffffffffffffffffffff166111ee61189f565b73ffffffffffffffffffffffffffffffffffffffff1614611244576040517f08c379a000000000000000000000000000000000000000000000000000000000815260040161123b906142b4565b60405180910390fd5b80600d8190555050565b611256612081565b73ffffffffffffffffffffffffffffffffffffffff1661127461189f565b73ffffffffffffffffffffffffffffffffffffffff16146112ca576040517f08c379a00000000000000000000000000000000000000000000000000000000081526004016112c1906142b4565b60405180910390fd5b6001601260008373ffffffffffffffffffffffffffffffffffffffff1673ffffffffffffffffffffffffffffffffffffffff16815260200190815260200160002060006101000a81548160ff02191690831515021790555050565b600061132f610d0c565b8210611370576040517f08c379a000000000000000000000000000000000000000000000000000000000815260040161136790614354565b60405180910390fd5b600882815481106113aa577f4e487b7100000000000000000000000000000000000000000000000000000000600052603260045260246000fd5b90600052602060002001549050919050565b6113c4612081565b73ffffffffffffffffffffffffffffffffffffffff166113e261189f565b73ffffffffffffffffffffffffffffffffffffffff1614611438576040517f08c379a000000000000000000000000000000000000000000000000000000000815260040161142f906142b4565b60405180910390fd5b60005b60028110156114ec57600160136000848460648110611483577f4e487b7100000000000000000000000000000000000000000000000000000000600052603260045260246000fd5b602002015173ffffffffffffffffffffffffffffffffffffffff1673ffffffffffffffffffffffffffffffffffffffff16815260200190815260200160002060006101000a81548160ff02191690831515021790555080806114e490614685565b91505061143b565b5050565b6114f8612081565b73ffffffffffffffffffffffffffffffffffffffff1661151661189f565b73ffffffffffffffffffffffffffffffffffffffff161461156c576040517f08c379a0000000000000000000000000000000000000000000000000000000008152600401611563906142b4565b60405180910390fd5b80600b908051906020019061158292919061328a565b5050565b601160009054906101000a900460ff1681565b6000806002600084815260200190815260200160002060009054906101000a900473ffffffffffffffffffffffffffffffffffffffff169050600073ffffffffffffffffffffffffffffffffffffffff168173ffffffffffffffffffffffffffffffffffffffff161415611642576040517f08c379a000000000000000000000000000000000000000000000000000000000815260040161163990614254565b60405180910390fd5b80915050919050565b600b805461165890614653565b80601f016020809104026020016040519081016040528092919081815260200182805461168490614653565b80156116d15780601f106116a6576101008083540402835291602001916116d1565b820191906000526020600020905b8154815290600101906020018083116116b457829003601f168201915b505050505081565b60008073ffffffffffffffffffffffffffffffffffffffff168273ffffffffffffffffffffffffffffffffffffffff16141561174a576040517f08c379a000000000000000000000000000000000000000000000000000000000815260040161174190614234565b60405180910390fd5b600360008373ffffffffffffffffffffffffffffffffffffffff1673ffffffffffffffffffffffffffffffffffffffff168152602001908152602001600020549050919050565b611799612081565b73ffffffffffffffffffffffffffffffffffffffff166117b761189f565b73ffffffffffffffffffffffffffffffffffffffff161461180d576040517f08c379a0000000000000000000000000000000000000000000000000000000008152600401611804906142b4565b60405180910390fd5b6118176000612506565b565b611821612081565b73ffffffffffffffffffffffffffffffffffffffff1661183f61189f565b73ffffffffffffffffffffffffffffffffffffffff1614611895576040517f08c379a000000000000000000000000000000000000000000000000000000000815260040161188c906142b4565b60405180910390fd5b8060108190555050565b6000600a60009054906101000a900473ffffffffffffffffffffffffffffffffffffffff16905090565b6118d1612081565b73ffffffffffffffffffffffffffffffffffffffff166118ef61189f565b73ffffffffffffffffffffffffffffffffffffffff1614611945576040517f08c379a000000000000000000000000000000000000000000000000000000000815260040161193c906142b4565b60405180910390fd5b80600e8190555050565b60606001805461195e90614653565b80601f016020809104026020016040519081016040528092919081815260200182805461198a90614653565b80156119d75780601f106119ac576101008083540402835291602001916119d7565b820191906000526020600020905b8154815290600101906020018083116119ba57829003601f168201915b5050505050905090565b6119f36119ec612081565b83836125cc565b5050565b6119ff612081565b73ffffffffffffffffffffffffffffffffffffffff16611a1d61189f565b73ffffffffffffffffffffffffffffffffffffffff1614611a73576040517f08c379a0000000000000000000000000000000000000000000000000000000008152600401611a6a906142b4565b60405180910390fd5b6001601360008373ffffffffffffffffffffffffffffffffffffffff1673ffffffffffffffffffffffffffffffffffffffff16815260200190815260200160002060006101000a81548160ff02191690831515021790555050565b611adf611ad9612081565b836121ae565b611b1e576040517f08c379a0000000000000000000000000000000000000000000000000000000008152600401611b1590614334565b60405180910390fd5b611b2a84848484612739565b50505050565b600c8054611b3d90614653565b80601f0160208091040260200160405190810160405280929190818152602001828054611b6990614653565b8015611bb65780601f10611b8b57610100808354040283529160200191611bb6565b820191906000526020600020905b815481529060010190602001808311611b9957829003601f168201915b505050505081565b6060611bc982612089565b611c08576040517f08c379a0000000000000000000000000000000000000000000000000000000008152600401611bff906142f4565b60405180910390fd5b6000611c12612795565b90506000815111611c325760405180602001604052806000815250611c60565b80611c3c84612827565b600c604051602001611c5093929190614028565b6040516020818303038152906040525b915050919050565b600f5481565b60126020528060005260406000206000915054906101000a900460ff1681565b611c96612081565b73ffffffffffffffffffffffffffffffffffffffff16611cb461189f565b73ffffffffffffffffffffffffffffffffffffffff1614611d0a576040517f08c379a0000000000000000000000000000000000000000000000000000000008152600401611d01906142b4565b60405180910390fd5b80600c9080519060200190611d2092919061328a565b5050565b6000600560008473ffffffffffffffffffffffffffffffffffffffff1673ffffffffffffffffffffffffffffffffffffffff16815260200190815260200160002060008373ffffffffffffffffffffffffffffffffffffffff1673ffffffffffffffffffffffffffffffffffffffff16815260200190815260200160002060009054906101000a900460ff16905092915050565b611dc0612081565b73ffffffffffffffffffffffffffffffffffffffff16611dde61189f565b73ffffffffffffffffffffffffffffffffffffffff1614611e34576040517f08c379a0000000000000000000000000000000000000000000000000000000008152600401611e2b906142b4565b60405180910390fd5b6000601360008373ffffffffffffffffffffffffffffffffffffffff1673ffffffffffffffffffffffffffffffffffffffff16815260200190815260200160002060006101000a81548160ff02191690831515021790555050565b611e97612081565b73ffffffffffffffffffffffffffffffffffffffff16611eb561189f565b73ffffffffffffffffffffffffffffffffffffffff1614611f0b576040517f08c379a0000000000000000000000000000000000000000000000000000000008152600401611f02906142b4565b60405180910390fd5b600073ffffffffffffffffffffffffffffffffffffffff168173ffffffffffffffffffffffffffffffffffffffff161415611f7b576040517f08c379a0000000000000000000000000000000000000000000000000000000008152600401611f7290614174565b60405180910390fd5b611f8481612506565b50565b600080823b905060008111915050919050565b505050565b60007f80ac58cd000000000000000000000000000000000000000000000000000000007bffffffffffffffffffffffffffffffffffffffffffffffffffffffff1916827bffffffffffffffffffffffffffffffffffffffffffffffffffffffff1916148061206a57507f5b5e139f000000000000000000000000000000000000000000000000000000007bffffffffffffffffffffffffffffffffffffffffffffffffffffffff1916827bffffffffffffffffffffffffffffffffffffffffffffffffffffffff1916145b8061207a5750612079826129d4565b5b9050919050565b600033905090565b60008073ffffffffffffffffffffffffffffffffffffffff166002600084815260200190815260200160002060009054906101000a900473ffffffffffffffffffffffffffffffffffffffff1673ffffffffffffffffffffffffffffffffffffffff1614159050919050565b816004600083815260200190815260200160002060006101000a81548173ffffffffffffffffffffffffffffffffffffffff021916908373ffffffffffffffffffffffffffffffffffffffff160217905550808273ffffffffffffffffffffffffffffffffffffffff1661216883611599565b73ffffffffffffffffffffffffffffffffffffffff167f8c5be1e5ebec7d5bd14f71427d1e84f3dd0314c0f7b2291e5b200ac8c7c3b92560405160405180910390a45050565b60006121b982612089565b6121f8576040517f08c379a00000000000000000000000000000000000000000000000000000000081526004016121ef906141f4565b60405180910390fd5b600061220383611599565b90508073ffffffffffffffffffffffffffffffffffffffff168473ffffffffffffffffffffffffffffffffffffffff16148061227257508373ffffffffffffffffffffffffffffffffffffffff1661225a84610b69565b73ffffffffffffffffffffffffffffffffffffffff16145b8061228357506122828185611d24565b5b91505092915050565b8273ffffffffffffffffffffffffffffffffffffffff166122ac82611599565b73ffffffffffffffffffffffffffffffffffffffff1614612302576040517f08c379a00000000000000000000000000000000000000000000000000000000081526004016122f9906142d4565b60405180910390fd5b600073ffffffffffffffffffffffffffffffffffffffff168273ffffffffffffffffffffffffffffffffffffffff161415612372576040517f08c379a0000000000000000000000000000000000000000000000000000000008152600401612369906141b4565b60405180910390fd5b61237d838383612a3e565b6123886000826120f5565b6001600360008573ffffffffffffffffffffffffffffffffffffffff1673ffffffffffffffffffffffffffffffffffffffff16815260200190815260200160002060008282546123d89190614569565b925050819055506001600360008473ffffffffffffffffffffffffffffffffffffffff1673ffffffffffffffffffffffffffffffffffffffff168152602001908152602001600020600082825461242f91906144e2565b92505081905550816002600083815260200190815260200160002060006101000a81548173ffffffffffffffffffffffffffffffffffffffff021916908373ffffffffffffffffffffffffffffffffffffffff160217905550808273ffffffffffffffffffffffffffffffffffffffff168473ffffffffffffffffffffffffffffffffffffffff167fddf252ad1be2c89b69c2b068fc378daa952ba7f163c4a11628f55a4df523b3ef60405160405180910390a4505050565b612502828260405180602001604052806000815250612b52565b5050565b6000600a60009054906101000a900473ffffffffffffffffffffffffffffffffffffffff16905081600a60006101000a81548173ffffffffffffffffffffffffffffffffffffffff021916908373ffffffffffffffffffffffffffffffffffffffff1602179055508173ffffffffffffffffffffffffffffffffffffffff168173ffffffffffffffffffffffffffffffffffffffff167f8be0079c531659141344cd1fd0a4f28419497f9722a3daafe3b4186f6b6457e060405160405180910390a35050565b8173ffffffffffffffffffffffffffffffffffffffff168373ffffffffffffffffffffffffffffffffffffffff16141561263b576040517f08c379a0000000000000000000000000000000000000000000000000000000008152600401612632906141d4565b60405180910390fd5b80600560008573ffffffffffffffffffffffffffffffffffffffff1673ffffffffffffffffffffffffffffffffffffffff16815260200190815260200160002060008473ffffffffffffffffffffffffffffffffffffffff1673ffffffffffffffffffffffffffffffffffffffff16815260200190815260200160002060006101000a81548160ff0219169083151502179055508173ffffffffffffffffffffffffffffffffffffffff168373ffffffffffffffffffffffffffffffffffffffff167f17307eab39ab6107e8899845ad3d59bd9653f200f220920489ca2b5937696c318360405161272c91906140f7565b60405180910390a3505050565b61274484848461228c565b61275084848484612bad565b61278f576040517f08c379a000000000000000000000000000000000000000000000000000000000815260040161278690614154565b60405180910390fd5b50505050565b6060600b80546127a490614653565b80601f01602080910402602001604051908101604052809291908181526020018280546127d090614653565b801561281d5780601f106127f25761010080835404028352916020019161281d565b820191906000526020600020905b81548152906001019060200180831161280057829003601f168201915b5050505050905090565b6060600082141561286f576040518060400160405280600181526020017f300000000000000000000000000000000000000000000000000000000000000081525090506129cf565b600082905060005b600082146128a157808061288a90614685565b915050600a8261289a9190614538565b9150612877565b60008167ffffffffffffffff8111156128e3577f4e487b7100000000000000000000000000000000000000000000000000000000600052604160045260246000fd5b6040519080825280601f01601f1916602001820160405280156129155781602001600182028036833780820191505090505b5090505b600085146129c85760018261292e9190614569565b9150600a8561293d91906146ce565b603061294991906144e2565b60f81b818381518110612985577f4e487b7100000000000000000000000000000000000000000000000000000000600052603260045260246000fd5b60200101907effffffffffffffffffffffffffffffffffffffffffffffffffffffffffffff1916908160001a905350600a856129c19190614538565b9450612919565b8093505050505b919050565b60007f01ffc9a7000000000000000000000000000000000000000000000000000000007bffffffffffffffffffffffffffffffffffffffffffffffffffffffff1916827bffffffffffffffffffffffffffffffffffffffffffffffffffffffff1916149050919050565b612a49838383611f9a565b600073ffffffffffffffffffffffffffffffffffffffff168373ffffffffffffffffffffffffffffffffffffffff161415612a8c57612a8781612d44565b612acb565b8173ffffffffffffffffffffffffffffffffffffffff168373ffffffffffffffffffffffffffffffffffffffff1614612aca57612ac98382612d8d565b5b5b600073ffffffffffffffffffffffffffffffffffffffff168273ffffffffffffffffffffffffffffffffffffffff161415612b0e57612b0981612efa565b612b4d565b8273ffffffffffffffffffffffffffffffffffffffff168273ffffffffffffffffffffffffffffffffffffffff1614612b4c57612b4b828261303d565b5b5b505050565b612b5c83836130bc565b612b696000848484612bad565b612ba8576040517f08c379a0000000000000000000000000000000000000000000000000000000008152600401612b9f90614154565b60405180910390fd5b505050565b6000612bce8473ffffffffffffffffffffffffffffffffffffffff16611f87565b15612d37578373ffffffffffffffffffffffffffffffffffffffff1663150b7a02612bf7612081565b8786866040518563ffffffff1660e01b8152600401612c199493929190614089565b602060405180830381600087803b158015612c3357600080fd5b505af1925050508015612c6457506040513d601f19601f82011682018060405250810190612c619190613713565b60015b612ce7573d8060008114612c94576040519150601f19603f3d011682016040523d82523d6000602084013e612c99565b606091505b50600081511415612cdf576040517f08c379a0000000000000000000000000000000000000000000000000000000008152600401612cd690614154565b60405180910390fd5b805181602001fd5b63150b7a0260e01b7bffffffffffffffffffffffffffffffffffffffffffffffffffffffff1916817bffffffffffffffffffffffffffffffffffffffffffffffffffffffff191614915050612d3c565b600190505b949350505050565b6008805490506009600083815260200190815260200160002081905550600881908060018154018082558091505060019003906000526020600020016000909190919091505550565b60006001612d9a846116d9565b612da49190614569565b9050600060076000848152602001908152602001600020549050818114612e89576000600660008673ffffffffffffffffffffffffffffffffffffffff1673ffffffffffffffffffffffffffffffffffffffff168152602001908152602001600020600084815260200190815260200160002054905080600660008773ffffffffffffffffffffffffffffffffffffffff1673ffffffffffffffffffffffffffffffffffffffff168152602001908152602001600020600084815260200190815260200160002081905550816007600083815260200190815260200160002081905550505b6007600084815260200190815260200160002060009055600660008573ffffffffffffffffffffffffffffffffffffffff1673ffffffffffffffffffffffffffffffffffffffff16815260200190815260200160002060008381526020019081526020016000206000905550505050565b60006001600880549050612f0e9190614569565b9050600060096000848152602001908152602001600020549050600060088381548110612f64577f4e487b7100000000000000000000000000000000000000000000000000000000600052603260045260246000fd5b906000526020600020015490508060088381548110612fac577f4e487b7100000000000000000000000000000000000000000000000000000000600052603260045260246000fd5b906000526020600020018190555081600960008381526020019081526020016000208190555060096000858152602001908152602001600020600090556008805480613021577f4e487b7100000000000000000000000000000000000000000000000000000000600052603160045260246000fd5b6001900381819060005260206000200160009055905550505050565b6000613048836116d9565b905081600660008573ffffffffffffffffffffffffffffffffffffffff1673ffffffffffffffffffffffffffffffffffffffff168152602001908152602001600020600083815260200190815260200160002081905550806007600084815260200190815260200160002081905550505050565b600073ffffffffffffffffffffffffffffffffffffffff168273ffffffffffffffffffffffffffffffffffffffff16141561312c576040517f08c379a000000000000000000000000000000000000000000000000000000000815260040161312390614274565b60405180910390fd5b61313581612089565b15613175576040517f08c379a000000000000000000000000000000000000000000000000000000000815260040161316c90614194565b60405180910390fd5b61318160008383612a3e565b6001600360008473ffffffffffffffffffffffffffffffffffffffff1673ffffffffffffffffffffffffffffffffffffffff16815260200190815260200160002060008282546131d191906144e2565b92505081905550816002600083815260200190815260200160002060006101000a81548173ffffffffffffffffffffffffffffffffffffffff021916908373ffffffffffffffffffffffffffffffffffffffff160217905550808273ffffffffffffffffffffffffffffffffffffffff16600073ffffffffffffffffffffffffffffffffffffffff167fddf252ad1be2c89b69c2b068fc378daa952ba7f163c4a11628f55a4df523b3ef60405160405180910390a45050565b82805461329690614653565b90600052602060002090601f0160209004810192826132b857600085556132ff565b82601f106132d157805160ff19168380011785556132ff565b828001600101855582156132ff579182015b828111156132fe5782518255916020019190600101906132e3565b5b50905061330c9190613310565b5090565b5b80821115613329576000816000905550600101613311565b5090565b600061334061333b846143c0565b61438f565b9050808285602086028201111561335657600080fd5b60005b85811015613386578161336c888261340c565b845260208401935060208301925050600181019050613359565b5050509392505050565b60006133a361339e846143e6565b61438f565b9050828152602081018484840111156133bb57600080fd5b6133c6848285614611565b509392505050565b60006133e16133dc84614416565b61438f565b9050828152602081018484840111156133f957600080fd5b613404848285614611565b509392505050565b60008135905061341b816147cc565b92915050565b600082601f83011261343257600080fd5b606461343f84828561332d565b91505092915050565b600081359050613457816147e3565b92915050565b60008135905061346c816147fa565b92915050565b600081519050613481816147fa565b92915050565b600082601f83011261349857600080fd5b81356134a8848260208601613390565b91505092915050565b600082601f8301126134c257600080fd5b81356134d28482602086016133ce565b91505092915050565b6000813590506134ea81614811565b92915050565b60006020828403121561350257600080fd5b60006135108482850161340c565b91505092915050565b6000806040838503121561352c57600080fd5b600061353a8582860161340c565b925050602061354b8582860161340c565b9150509250929050565b60008060006060848603121561356a57600080fd5b60006135788682870161340c565b93505060206135898682870161340c565b925050604061359a868287016134db565b9150509250925092565b600080600080608085870312156135ba57600080fd5b60006135c88782880161340c565b94505060206135d98782880161340c565b93505060406135ea878288016134db565b925050606085013567ffffffffffffffff81111561360757600080fd5b61361387828801613487565b91505092959194509250565b6000806040838503121561363257600080fd5b60006136408582860161340c565b925050602061365185828601613448565b9150509250929050565b6000806040838503121561366e57600080fd5b600061367c8582860161340c565b925050602061368d858286016134db565b9150509250929050565b6000610c8082840312156136aa57600080fd5b60006136b884828501613421565b91505092915050565b6000602082840312156136d357600080fd5b60006136e184828501613448565b91505092915050565b6000602082840312156136fc57600080fd5b600061370a8482850161345d565b91505092915050565b60006020828403121561372557600080fd5b600061373384828501613472565b91505092915050565b60006020828403121561374e57600080fd5b600082013567ffffffffffffffff81111561376857600080fd5b613774848285016134b1565b91505092915050565b60006020828403121561378f57600080fd5b600061379d848285016134db565b91505092915050565b60006137b2838361400a565b60208301905092915050565b6137c78161459d565b82525050565b60006137d88261446b565b6137e28185614499565b93506137ed83614446565b8060005b8381101561381e57815161380588826137a6565b97506138108361448c565b9250506001810190506137f1565b5085935050505092915050565b613834816145af565b82525050565b600061384582614476565b61384f81856144aa565b935061385f818560208601614620565b613868816147bb565b840191505092915050565b600061387e82614481565b61388881856144c6565b9350613898818560208601614620565b6138a1816147bb565b840191505092915050565b60006138b782614481565b6138c181856144d7565b93506138d1818560208601614620565b80840191505092915050565b600081546138ea81614653565b6138f481866144d7565b9450600182166000811461390f576001811461392057613953565b60ff19831686528186019350613953565b61392985614456565b60005b8381101561394b5781548189015260018201915060208101905061392c565b838801955050505b50505092915050565b6000613969602b836144c6565b91507f455243373231456e756d657261626c653a206f776e657220696e646578206f7560008301527f74206f6620626f756e64730000000000000000000000000000000000000000006020830152604082019050919050565b60006139cf6032836144c6565b91507f4552433732313a207472616e7366657220746f206e6f6e20455243373231526560008301527f63656976657220696d706c656d656e74657200000000000000000000000000006020830152604082019050919050565b6000613a356026836144c6565b91507f4f776e61626c653a206e6577206f776e657220697320746865207a65726f206160008301527f64647265737300000000000000000000000000000000000000000000000000006020830152604082019050919050565b6000613a9b601c836144c6565b91507f4552433732313a20746f6b656e20616c7265616479206d696e746564000000006000830152602082019050919050565b6000613adb6024836144c6565b91507f4552433732313a207472616e7366657220746f20746865207a65726f2061646460008301527f72657373000000000000000000000000000000000000000000000000000000006020830152604082019050919050565b6000613b416019836144c6565b91507f4552433732313a20617070726f766520746f2063616c6c6572000000000000006000830152602082019050919050565b6000613b81602c836144c6565b91507f4552433732313a206f70657261746f7220717565727920666f72206e6f6e657860008301527f697374656e7420746f6b656e00000000000000000000000000000000000000006020830152604082019050919050565b6000613be76038836144c6565b91507f4552433732313a20617070726f76652063616c6c6572206973206e6f74206f7760008301527f6e6572206e6f7220617070726f76656420666f7220616c6c00000000000000006020830152604082019050919050565b6000613c4d602a836144c6565b91507f4552433732313a2062616c616e636520717565727920666f7220746865207a6560008301527f726f2061646472657373000000000000000000000000000000000000000000006020830152604082019050919050565b6000613cb36029836144c6565b91507f4552433732313a206f776e657220717565727920666f72206e6f6e657869737460008301527f656e7420746f6b656e00000000000000000000000000000000000000000000006020830152604082019050919050565b6000613d196020836144c6565b91507f4552433732313a206d696e7420746f20746865207a65726f20616464726573736000830152602082019050919050565b6000613d59602c836144c6565b91507f4552433732313a20617070726f76656420717565727920666f72206e6f6e657860008301527f697374656e7420746f6b656e00000000000000000000000000000000000000006020830152604082019050919050565b6000613dbf6020836144c6565b91507f4f776e61626c653a2063616c6c6572206973206e6f7420746865206f776e65726000830152602082019050919050565b6000613dff6029836144c6565b91507f4552433732313a207472616e73666572206f6620746f6b656e2074686174206960008301527f73206e6f74206f776e00000000000000000000000000000000000000000000006020830152604082019050919050565b6000613e65602f836144c6565b91507f4552433732314d657461646174613a2055524920717565727920666f72206e6f60008301527f6e6578697374656e7420746f6b656e00000000000000000000000000000000006020830152604082019050919050565b6000613ecb6021836144c6565b91507f4552433732313a20617070726f76616c20746f2063757272656e74206f776e6560008301527f72000000000000000000000000000000000000000000000000000000000000006020830152604082019050919050565b6000613f316000836144bb565b9150600082019050919050565b6000613f4b6031836144c6565b91507f4552433732313a207472616e736665722063616c6c6572206973206e6f74206f60008301527f776e6572206e6f7220617070726f7665640000000000000000000000000000006020830152604082019050919050565b6000613fb1602c836144c6565b91507f455243373231456e756d657261626c653a20676c6f62616c20696e646578206f60008301527f7574206f6620626f756e647300000000000000000000000000000000000000006020830152604082019050919050565b61401381614607565b82525050565b61402281614607565b82525050565b600061403482866138ac565b915061404082856138ac565b915061404c82846138dd565b9150819050949350505050565b600061406482613f24565b9150819050919050565b600060208201905061408360008301846137be565b92915050565b600060808201905061409e60008301876137be565b6140ab60208301866137be565b6140b86040830185614019565b81810360608301526140ca818461383a565b905095945050505050565b600060208201905081810360008301526140ef81846137cd565b905092915050565b600060208201905061410c600083018461382b565b92915050565b6000602082019050818103600083015261412c8184613873565b905092915050565b6000602082019050818103600083015261414d8161395c565b9050919050565b6000602082019050818103600083015261416d816139c2565b9050919050565b6000602082019050818103600083015261418d81613a28565b9050919050565b600060208201905081810360008301526141ad81613a8e565b9050919050565b600060208201905081810360008301526141cd81613ace565b9050919050565b600060208201905081810360008301526141ed81613b34565b9050919050565b6000602082019050818103600083015261420d81613b74565b9050919050565b6000602082019050818103600083015261422d81613bda565b9050919050565b6000602082019050818103600083015261424d81613c40565b9050919050565b6000602082019050818103600083015261426d81613ca6565b9050919050565b6000602082019050818103600083015261428d81613d0c565b9050919050565b600060208201905081810360008301526142ad81613d4c565b9050919050565b600060208201905081810360008301526142cd81613db2565b9050919050565b600060208201905081810360008301526142ed81613df2565b9050919050565b6000602082019050818103600083015261430d81613e58565b9050919050565b6000602082019050818103600083015261432d81613ebe565b9050919050565b6000602082019050818103600083015261434d81613f3e565b9050919050565b6000602082019050818103600083015261436d81613fa4565b9050919050565b60006020820190506143896000830184614019565b92915050565b6000604051905081810181811067ffffffffffffffff821117156143b6576143b561478c565b5b8060405250919050565b600067ffffffffffffffff8211156143db576143da61478c565b5b602082029050919050565b600067ffffffffffffffff8211156144015761440061478c565b5b601f19601f8301169050602081019050919050565b600067ffffffffffffffff8211156144315761443061478c565b5b601f19601f8301169050602081019050919050565b6000819050602082019050919050565b60008190508160005260206000209050919050565b600081519050919050565b600081519050919050565b600081519050919050565b6000602082019050919050565b600082825260208201905092915050565b600082825260208201905092915050565b600081905092915050565b600082825260208201905092915050565b600081905092915050565b60006144ed82614607565b91506144f883614607565b9250827fffffffffffffffffffffffffffffffffffffffffffffffffffffffffffffffff0382111561452d5761452c6146ff565b5b828201905092915050565b600061454382614607565b915061454e83614607565b92508261455e5761455d61472e565b5b828204905092915050565b600061457482614607565b915061457f83614607565b925082821015614592576145916146ff565b5b828203905092915050565b60006145a8826145e7565b9050919050565b60008115159050919050565b60007fffffffff0000000000000000000000000000000000000000000000000000000082169050919050565b600073ffffffffffffffffffffffffffffffffffffffff82169050919050565b6000819050919050565b82818337600083830152505050565b60005b8381101561463e578082015181840152602081019050614623565b8381111561464d576000848401525b50505050565b6000600282049050600182168061466b57607f821691505b6020821081141561467f5761467e61475d565b5b50919050565b600061469082614607565b91507fffffffffffffffffffffffffffffffffffffffffffffffffffffffffffffffff8214156146c3576146c26146ff565b5b600182019050919050565b60006146d982614607565b91506146e483614607565b9250826146f4576146f361472e565b5b828206905092915050565b7f4e487b7100000000000000000000000000000000000000000000000000000000600052601160045260246000fd5b7f4e487b7100000000000000000000000000000000000000000000000000000000600052601260045260246000fd5b7f4e487b7100000000000000000000000000000000000000000000000000000000600052602260045260246000fd5b7f4e487b7100000000000000000000000000000000000000000000000000000000600052604160045260246000fd5b6000601f19601f8301169050919050565b6147d58161459d565b81146147e057600080fd5b50565b6147ec816145af565b81146147f757600080fd5b50565b614803816145bb565b811461480e57600080fd5b50565b61481a81614607565b811461482557600080fd5b5056fea26469706673582212208fe093abd0cfc983b52381a96ba94cc85db95cb4acaa299c0e3022ac43345f7a64736f6c63430008000033",
  "linkReferences": {},
  "deployedLinkReferences": {}
}