{
    "_format": "hh-sol-artifact-1",
    "contractName": "nft",
    "sourceName": "contracts/nft.sol",
    "abi": [
        {
            "inputs": [],
            "stateMutability": "nonpayable",
            "type": "constructor"
        },
        {
            "anonymous": false,
            "inputs": [
                {
                    "indexed": true,
                    "internalType": "address",
                    "name": "owner",
                    "type": "address"
                },
                {
                    "indexed": true,
                    "internalType": "address",
                    "name": "approved",
                    "type": "address"
                },
                {
                    "indexed": true,
                    "internalType": "uint256",
                    "name": "tokenId",
                    "type": "uint256"
                }
            ],
            "name": "Approval",
            "type": "event"
        },
        {
            "anonymous": false,
            "inputs": [
                {
                    "indexed": true,
                    "internalType": "address",
                    "name": "owner",
                    "type": "address"
                },
                {
                    "indexed": true,
                    "internalType": "address",
                    "name": "operator",
                    "type": "address"
                },
                {
                    "indexed": false,
                    "internalType": "bool",
                    "name": "approved",
                    "type": "bool"
                }
            ],
            "name": "ApprovalForAll",
            "type": "event"
        },
        {
            "anonymous": false,
            "inputs": [
                {
                    "indexed": true,
                    "internalType": "address",
                    "name": "from",
                    "type": "address"
                },
                {
                    "indexed": true,
                    "internalType": "address",
                    "name": "to",
                    "type": "address"
                },
                {
                    "indexed": true,
                    "internalType": "uint256",
                    "name": "tokenId",
                    "type": "uint256"
                }
            ],
            "name": "Transfer",
            "type": "event"
        },
        {
            "inputs": [
                {
                    "internalType": "address",
                    "name": "to",
                    "type": "address"
                },
                {
                    "internalType": "uint256",
                    "name": "tokenId",
                    "type": "uint256"
                }
            ],
            "name": "approve",
            "outputs": [],
            "stateMutability": "nonpayable",
            "type": "function"
        },
        {
            "inputs": [
                {
                    "internalType": "address",
                    "name": "owner",
                    "type": "address"
                }
            ],
            "name": "balanceOf",
            "outputs": [
                {
                    "internalType": "uint256",
                    "name": "",
                    "type": "uint256"
                }
            ],
            "stateMutability": "view",
            "type": "function"
        },
        {
            "inputs": [
                {
                    "internalType": "uint256",
                    "name": "tokenId",
                    "type": "uint256"
                }
            ],
            "name": "getApproved",
            "outputs": [
                {
                    "internalType": "address",
                    "name": "",
                    "type": "address"
                }
            ],
            "stateMutability": "view",
            "type": "function"
        },
        {
            "inputs": [],
            "name": "getCurrentJsonId",
            "outputs": [
                {
                    "internalType": "uint256",
                    "name": "",
                    "type": "uint256"
                }
            ],
            "stateMutability": "view",
            "type": "function"
        },
        {
            "inputs": [
                {
                    "internalType": "address",
                    "name": "owner",
                    "type": "address"
                },
                {
                    "internalType": "address",
                    "name": "operator",
                    "type": "address"
                }
            ],
            "name": "isApprovedForAll",
            "outputs": [
                {
                    "internalType": "bool",
                    "name": "",
                    "type": "bool"
                }
            ],
            "stateMutability": "view",
            "type": "function"
        },
        {
            "inputs": [
                {
                    "internalType": "uint256",
                    "name": "jsonID",
                    "type": "uint256"
                },
                {
                    "internalType": "string",
                    "name": "Background",
                    "type": "string"
                },
                {
                    "internalType": "string",
                    "name": "body",
                    "type": "string"
                },
                {
                    "internalType": "string",
                    "name": "head",
                    "type": "string"
                },
                {
                    "internalType": "string",
                    "name": "AccessoryII",
                    "type": "string"
                },
                {
                    "internalType": "string",
                    "name": "traits",
                    "type": "string"
                }
            ],
            "name": "mint",
            "outputs": [
                {
                    "internalType": "string",
                    "name": "",
                    "type": "string"
                }
            ],
            "stateMutability": "nonpayable",
            "type": "function"
        },
        {
            "inputs": [],
            "name": "name",
            "outputs": [
                {
                    "internalType": "string",
                    "name": "",
                    "type": "string"
                }
            ],
            "stateMutability": "view",
            "type": "function"
        },
        {
            "inputs": [
                {
                    "internalType": "uint256",
                    "name": "tokenId",
                    "type": "uint256"
                }
            ],
            "name": "ownerOf",
            "outputs": [
                {
                    "internalType": "address",
                    "name": "",
                    "type": "address"
                }
            ],
            "stateMutability": "view",
            "type": "function"
        },
        {
            "inputs": [
                {
                    "internalType": "address",
                    "name": "from",
                    "type": "address"
                },
                {
                    "internalType": "address",
                    "name": "to",
                    "type": "address"
                },
                {
                    "internalType": "uint256",
                    "name": "tokenId",
                    "type": "uint256"
                }
            ],
            "name": "safeTransferFrom",
            "outputs": [],
            "stateMutability": "nonpayable",
            "type": "function"
        },
        {
            "inputs": [
                {
                    "internalType": "address",
                    "name": "from",
                    "type": "address"
                },
                {
                    "internalType": "address",
                    "name": "to",
                    "type": "address"
                },
                {
                    "internalType": "uint256",
                    "name": "tokenId",
                    "type": "uint256"
                },
                {
                    "internalType": "bytes",
                    "name": "_data",
                    "type": "bytes"
                }
            ],
            "name": "safeTransferFrom",
            "outputs": [],
            "stateMutability": "nonpayable",
            "type": "function"
        },
        {
            "inputs": [
                {
                    "internalType": "address",
                    "name": "operator",
                    "type": "address"
                },
                {
                    "internalType": "bool",
                    "name": "approved",
                    "type": "bool"
                }
            ],
            "name": "setApprovalForAll",
            "outputs": [],
            "stateMutability": "nonpayable",
            "type": "function"
        },
        {
            "inputs": [
                {
                    "internalType": "bytes4",
                    "name": "interfaceId",
                    "type": "bytes4"
                }
            ],
            "name": "supportsInterface",
            "outputs": [
                {
                    "internalType": "bool",
                    "name": "",
                    "type": "bool"
                }
            ],
            "stateMutability": "view",
            "type": "function"
        },
        {
            "inputs": [],
            "name": "symbol",
            "outputs": [
                {
                    "internalType": "string",
                    "name": "",
                    "type": "string"
                }
            ],
            "stateMutability": "view",
            "type": "function"
        },
        {
            "inputs": [
                {
                    "internalType": "uint256",
                    "name": "tokenId",
                    "type": "uint256"
                }
            ],
            "name": "tokenURI",
            "outputs": [
                {
                    "internalType": "string",
                    "name": "",
                    "type": "string"
                }
            ],
            "stateMutability": "view",
            "type": "function"
        },
        {
            "inputs": [
                {
                    "internalType": "address",
                    "name": "from",
                    "type": "address"
                },
                {
                    "internalType": "address",
                    "name": "to",
                    "type": "address"
                },
                {
                    "internalType": "uint256",
                    "name": "tokenId",
                    "type": "uint256"
                }
            ],
            "name": "transferFrom",
            "outputs": [],
            "stateMutability": "nonpayable",
            "type": "function"
        }
    ],
    "bytecode": "0x608060405260016006553480156200001657600080fd5b506040518060400160405280600d81526020017f43727970746f61647a4c6f6f74000000000000000000000000000000000000008152506040518060400160405280600281526020017f434c00000000000000000000000000000000000000000000000000000000000081525081600090805190602001906200009b929190620000bd565b508060019080519060200190620000b4929190620000bd565b505050620001d2565b828054620000cb906200016d565b90600052602060002090601f016020900481019282620000ef57600085556200013b565b82601f106200010a57805160ff19168380011785556200013b565b828001600101855582156200013b579182015b828111156200013a5782518255916020019190600101906200011d565b5b5090506200014a91906200014e565b5090565b5b80821115620001695760008160009055506001016200014f565b5090565b600060028204905060018216806200018657607f821691505b602082108114156200019d576200019c620001a3565b5b50919050565b7f4e487b7100000000000000000000000000000000000000000000000000000000600052602260045260246000fd5b61388080620001e26000396000f3fe608060405234801561001057600080fd5b50600436106100f55760003560e01c80636352211e11610097578063a22cb46511610066578063a22cb46514610298578063b88d4fde146102b4578063c87b56dd146102d0578063e985e9c514610300576100f5565b80636352211e146101ea57806370a082311461021a57806393cb9a351461024a57806395d89b411461027a576100f5565b8063081812fc116100d3578063081812fc14610166578063095ea7b31461019657806323b872dd146101b257806342842e0e146101ce576100f5565b806301ffc9a7146100fa57806305974a821461012a57806306fdde0314610148575b600080fd5b610114600480360381019061010f91906124bb565b610330565b6040516101219190612ac6565b60405180910390f35b610132610412565b60405161013f9190612ce3565b60405180910390f35b61015061041c565b60405161015d9190612ae1565b60405180910390f35b610180600480360381019061017b919061250d565b6104ae565b60405161018d9190612a5f565b60405180910390f35b6101b060048036038101906101ab919061247f565b610533565b005b6101cc60048036038101906101c79190612379565b61064b565b005b6101e860048036038101906101e39190612379565b6106ab565b005b61020460048036038101906101ff919061250d565b6106cb565b6040516102119190612a5f565b60405180910390f35b610234600480360381019061022f9190612314565b61077d565b6040516102419190612ce3565b60405180910390f35b610264600480360381019061025f9190612536565b610835565b6040516102719190612ae1565b60405180910390f35b6102826109c5565b60405161028f9190612ae1565b60405180910390f35b6102b260048036038101906102ad9190612443565b610a57565b005b6102ce60048036038101906102c991906123c8565b610a6d565b005b6102ea60048036038101906102e5919061250d565b610acf565b6040516102f79190612ae1565b60405180910390f35b61031a6004803603810190610315919061233d565b610b74565b6040516103279190612ac6565b60405180910390f35b60007f80ac58cd000000000000000000000000000000000000000000000000000000007bffffffffffffffffffffffffffffffffffffffffffffffffffffffff1916827bffffffffffffffffffffffffffffffffffffffffffffffffffffffff191614806103fb57507f5b5e139f000000000000000000000000000000000000000000000000000000007bffffffffffffffffffffffffffffffffffffffffffffffffffffffff1916827bffffffffffffffffffffffffffffffffffffffffffffffffffffffff1916145b8061040b575061040a82610c08565b5b9050919050565b6000600954905090565b60606000805461042b90612f93565b80601f016020809104026020016040519081016040528092919081815260200182805461045790612f93565b80156104a45780601f10610479576101008083540402835291602001916104a4565b820191906000526020600020905b81548152906001019060200180831161048757829003601f168201915b5050505050905090565b60006104b982610c72565b6104f8576040517f08c379a00000000000000000000000000000000000000000000000000000000081526004016104ef90612c43565b60405180910390fd5b6004600083815260200190815260200160002060009054906101000a900473ffffffffffffffffffffffffffffffffffffffff169050919050565b600061053e826106cb565b90508073ffffffffffffffffffffffffffffffffffffffff168373ffffffffffffffffffffffffffffffffffffffff1614156105af576040517f08c379a00000000000000000000000000000000000000000000000000000000081526004016105a690612c83565b60405180910390fd5b8073ffffffffffffffffffffffffffffffffffffffff166105ce610cde565b73ffffffffffffffffffffffffffffffffffffffff1614806105fd57506105fc816105f7610cde565b610b74565b5b61063c576040517f08c379a000000000000000000000000000000000000000000000000000000000815260040161063390612bc3565b60405180910390fd5b6106468383610ce6565b505050565b61065c610656610cde565b82610d9f565b61069b576040517f08c379a000000000000000000000000000000000000000000000000000000000815260040161069290612cc3565b60405180910390fd5b6106a6838383610e7d565b505050565b6106c683838360405180602001604052806000815250610a6d565b505050565b6000806002600084815260200190815260200160002060009054906101000a900473ffffffffffffffffffffffffffffffffffffffff169050600073ffffffffffffffffffffffffffffffffffffffff168173ffffffffffffffffffffffffffffffffffffffff161415610774576040517f08c379a000000000000000000000000000000000000000000000000000000000815260040161076b90612c03565b60405180910390fd5b80915050919050565b60008073ffffffffffffffffffffffffffffffffffffffff168273ffffffffffffffffffffffffffffffffffffffff1614156107ee576040517f08c379a00000000000000000000000000000000000000000000000000000000081526004016107e590612be3565b60405180910390fd5b600360008373ffffffffffffffffffffffffffffffffffffffff1673ffffffffffffffffffffffffffffffffffffffff168152602001908152602001600020549050919050565b606060006008600089815260200190815260200160002060006101000a81548160ff02191690831515021790556108a1576040517f08c379a000000000000000000000000000000000000000000000000000000000815260040161089890612ca3565b60405180910390fd5b6001600654101580156108b75750611b72600654105b6108f6576040517f08c379a00000000000000000000000000000000000000000000000000000000081526004016108ed90612b03565b60405180910390fd5b611b3887111561093b576040517f08c379a000000000000000000000000000000000000000000000000000000000815260040161093290612b03565b60405180910390fd5b600061094d60065488888888886110d9565b905061096261095a610cde565b6006546117e6565b80600760006006548152602001908152602001600020908051906020019061098b929190612110565b506006600081548092919061099f90612ff6565b91905055506001886109b19190612dc8565b600981905550809150509695505050505050565b6060600180546109d490612f93565b80601f0160208091040260200160405190810160405280929190818152602001828054610a0090612f93565b8015610a4d5780601f10610a2257610100808354040283529160200191610a4d565b820191906000526020600020905b815481529060010190602001808311610a3057829003601f168201915b5050505050905090565b610a69610a62610cde565b8383611804565b5050565b610a7e610a78610cde565b83610d9f565b610abd576040517f08c379a0000000000000000000000000000000000000000000000000000000008152600401610ab490612cc3565b60405180910390fd5b610ac984848484611971565b50505050565b6060600760008381526020019081526020016000208054610aef90612f93565b80601f0160208091040260200160405190810160405280929190818152602001828054610b1b90612f93565b8015610b685780601f10610b3d57610100808354040283529160200191610b68565b820191906000526020600020905b815481529060010190602001808311610b4b57829003601f168201915b50505050509050919050565b6000600560008473ffffffffffffffffffffffffffffffffffffffff1673ffffffffffffffffffffffffffffffffffffffff16815260200190815260200160002060008373ffffffffffffffffffffffffffffffffffffffff1673ffffffffffffffffffffffffffffffffffffffff16815260200190815260200160002060009054906101000a900460ff16905092915050565b60007f01ffc9a7000000000000000000000000000000000000000000000000000000007bffffffffffffffffffffffffffffffffffffffffffffffffffffffff1916827bffffffffffffffffffffffffffffffffffffffffffffffffffffffff1916149050919050565b60008073ffffffffffffffffffffffffffffffffffffffff166002600084815260200190815260200160002060009054906101000a900473ffffffffffffffffffffffffffffffffffffffff1673ffffffffffffffffffffffffffffffffffffffff1614159050919050565b600033905090565b816004600083815260200190815260200160002060006101000a81548173ffffffffffffffffffffffffffffffffffffffff021916908373ffffffffffffffffffffffffffffffffffffffff160217905550808273ffffffffffffffffffffffffffffffffffffffff16610d59836106cb565b73ffffffffffffffffffffffffffffffffffffffff167f8c5be1e5ebec7d5bd14f71427d1e84f3dd0314c0f7b2291e5b200ac8c7c3b92560405160405180910390a45050565b6000610daa82610c72565b610de9576040517f08c379a0000000000000000000000000000000000000000000000000000000008152600401610de090612ba3565b60405180910390fd5b6000610df4836106cb565b90508073ffffffffffffffffffffffffffffffffffffffff168473ffffffffffffffffffffffffffffffffffffffff161480610e6357508373ffffffffffffffffffffffffffffffffffffffff16610e4b846104ae565b73ffffffffffffffffffffffffffffffffffffffff16145b80610e745750610e738185610b74565b5b91505092915050565b8273ffffffffffffffffffffffffffffffffffffffff16610e9d826106cb565b73ffffffffffffffffffffffffffffffffffffffff1614610ef3576040517f08c379a0000000000000000000000000000000000000000000000000000000008152600401610eea90612c63565b60405180910390fd5b600073ffffffffffffffffffffffffffffffffffffffff168273ffffffffffffffffffffffffffffffffffffffff161415610f63576040517f08c379a0000000000000000000000000000000000000000000000000000000008152600401610f5a90612b63565b60405180910390fd5b610f6e8383836119cd565b610f79600082610ce6565b6001600360008573ffffffffffffffffffffffffffffffffffffffff1673ffffffffffffffffffffffffffffffffffffffff1681526020019081526020016000206000828254610fc99190612ea9565b925050819055506001600360008473ffffffffffffffffffffffffffffffffffffffff1673ffffffffffffffffffffffffffffffffffffffff16815260200190815260200160002060008282546110209190612dc8565b92505081905550816002600083815260200190815260200160002060006101000a81548173ffffffffffffffffffffffffffffffffffffffff021916908373ffffffffffffffffffffffffffffffffffffffff160217905550808273ffffffffffffffffffffffffffffffffffffffff168473ffffffffffffffffffffffffffffffffffffffff167fddf252ad1be2c89b69c2b068fc378daa952ba7f163c4a11628f55a4df523b3ef60405160405180910390a4505050565b60606110e3612196565b60405180610120016040528060fd81526020016136e660fd9139816000600b8110611137577f4e487b7100000000000000000000000000000000000000000000000000000000600052603260045260246000fd5b602002018190525086816001600b811061117a577f4e487b7100000000000000000000000000000000000000000000000000000000600052603260045260246000fd5b602002018190525060405180606001604052806028815260200161382360289139816002600b81106111d5577f4e487b7100000000000000000000000000000000000000000000000000000000600052603260045260246000fd5b602002018190525085816003600b8110611218577f4e487b7100000000000000000000000000000000000000000000000000000000600052603260045260246000fd5b602002018190525060405180606001604052806028815260200161366d60289139816004600b8110611273577f4e487b7100000000000000000000000000000000000000000000000000000000600052603260045260246000fd5b602002018190525084816005600b81106112b6577f4e487b7100000000000000000000000000000000000000000000000000000000600052603260045260246000fd5b602002018190525060405180606001604052806028815260200161369560289139816006600b8110611311577f4e487b7100000000000000000000000000000000000000000000000000000000600052603260045260246000fd5b602002018190525083816007600b8110611354577f4e487b7100000000000000000000000000000000000000000000000000000000600052603260045260246000fd5b60200201819052506040518060600160405280602981526020016136bd60299139816008600b81106113af577f4e487b7100000000000000000000000000000000000000000000000000000000600052603260045260246000fd5b602002018190525082816009600b81106113f2577f4e487b7100000000000000000000000000000000000000000000000000000000600052603260045260246000fd5b60200201819052506040518060400160405280600d81526020017f3c2f746578743e3c2f7376673e0000000000000000000000000000000000000081525081600a600b811061146a577f4e487b7100000000000000000000000000000000000000000000000000000000600052603260045260246000fd5b60200201819052506000816000600b81106114ae577f4e487b7100000000000000000000000000000000000000000000000000000000600052603260045260246000fd5b6020020151826001600b81106114ed577f4e487b7100000000000000000000000000000000000000000000000000000000600052603260045260246000fd5b6020020151836002600b811061152c577f4e487b7100000000000000000000000000000000000000000000000000000000600052603260045260246000fd5b6020020151846003600b811061156b577f4e487b7100000000000000000000000000000000000000000000000000000000600052603260045260246000fd5b6020020151856004600b81106115aa577f4e487b7100000000000000000000000000000000000000000000000000000000600052603260045260246000fd5b6020020151866005600b81106115e9577f4e487b7100000000000000000000000000000000000000000000000000000000600052603260045260246000fd5b6020020151604051602001611603969594939291906129a0565b604051602081830303815290604052905080826006600b811061164f577f4e487b7100000000000000000000000000000000000000000000000000000000600052603260045260246000fd5b6020020151836007600b811061168e577f4e487b7100000000000000000000000000000000000000000000000000000000600052603260045260246000fd5b6020020151846008600b81106116cd577f4e487b7100000000000000000000000000000000000000000000000000000000600052603260045260246000fd5b6020020151856009600b811061170c577f4e487b7100000000000000000000000000000000000000000000000000000000600052603260045260246000fd5b602002015186600a600b811061174b577f4e487b7100000000000000000000000000000000000000000000000000000000600052603260045260246000fd5b6020020151604051602001611765969594939291906129a0565b604051602081830303815290604052905060006117b26117848b6119d2565b61178d84611b7f565b60405160200161179e9291906129f8565b604051602081830303815290604052611b7f565b9050806040516020016117c59190612a3d565b60405160208183030381529060405291508193505050509695505050505050565b611800828260405180602001604052806000815250611d3d565b5050565b8173ffffffffffffffffffffffffffffffffffffffff168373ffffffffffffffffffffffffffffffffffffffff161415611873576040517f08c379a000000000000000000000000000000000000000000000000000000000815260040161186a90612b83565b60405180910390fd5b80600560008573ffffffffffffffffffffffffffffffffffffffff1673ffffffffffffffffffffffffffffffffffffffff16815260200190815260200160002060008473ffffffffffffffffffffffffffffffffffffffff1673ffffffffffffffffffffffffffffffffffffffff16815260200190815260200160002060006101000a81548160ff0219169083151502179055508173ffffffffffffffffffffffffffffffffffffffff168373ffffffffffffffffffffffffffffffffffffffff167f17307eab39ab6107e8899845ad3d59bd9653f200f220920489ca2b5937696c31836040516119649190612ac6565b60405180910390a3505050565b61197c848484610e7d565b61198884848484611d98565b6119c7576040517f08c379a00000000000000000000000000000000000000000000000000000000081526004016119be90612b23565b60405180910390fd5b50505050565b505050565b60606000821415611a1a576040518060400160405280600181526020017f30000000000000000000000000000000000000000000000000000000000000008152509050611b7a565b600082905060005b60008214611a4c578080611a3590612ff6565b915050600a82611a459190612e1e565b9150611a22565b60008167ffffffffffffffff811115611a8e577f4e487b7100000000000000000000000000000000000000000000000000000000600052604160045260246000fd5b6040519080825280601f01601f191660200182016040528015611ac05781602001600182028036833780820191505090505b5090505b60008514611b7357600182611ad99190612ea9565b9150600a85611ae8919061303f565b6030611af49190612dc8565b60f81b818381518110611b30577f4e487b7100000000000000000000000000000000000000000000000000000000600052603260045260246000fd5b60200101907effffffffffffffffffffffffffffffffffffffffffffffffffffffffffffff1916908160001a905350600a85611b6c9190612e1e565b9450611ac4565b8093505050505b919050565b60606000825190506000811415611ba85760405180602001604052806000815250915050611d38565b60006003600283611bb99190612dc8565b611bc39190612e1e565b6004611bcf9190612e4f565b90506000602082611be09190612dc8565b67ffffffffffffffff811115611c1f577f4e487b7100000000000000000000000000000000000000000000000000000000600052604160045260246000fd5b6040519080825280601f01601f191660200182016040528015611c515781602001600182028036833780820191505090505b50905060006040518060600160405280604081526020016137e3604091399050600181016020830160005b86811015611cf55760038101905062ffffff818a015116603f8160121c168401518060081b905060ff603f83600c1c1686015116810190508060081b905060ff603f8360061c1686015116810190508060081b905060ff603f831686015116810190508060e01b90508084526004840193505050611c7c565b506003860660018114611d0f5760028114611d1f57611d2a565b613d3d60f01b6002830352611d2a565b603d60f81b60018303525b508484525050819450505050505b919050565b611d478383611f2f565b611d546000848484611d98565b611d93576040517f08c379a0000000000000000000000000000000000000000000000000000000008152600401611d8a90612b23565b60405180910390fd5b505050565b6000611db98473ffffffffffffffffffffffffffffffffffffffff166120fd565b15611f22578373ffffffffffffffffffffffffffffffffffffffff1663150b7a02611de2610cde565b8786866040518563ffffffff1660e01b8152600401611e049493929190612a7a565b602060405180830381600087803b158015611e1e57600080fd5b505af1925050508015611e4f57506040513d601f19601f82011682018060405250810190611e4c91906124e4565b60015b611ed2573d8060008114611e7f576040519150601f19603f3d011682016040523d82523d6000602084013e611e84565b606091505b50600081511415611eca576040517f08c379a0000000000000000000000000000000000000000000000000000000008152600401611ec190612b23565b60405180910390fd5b805181602001fd5b63150b7a0260e01b7bffffffffffffffffffffffffffffffffffffffffffffffffffffffff1916817bffffffffffffffffffffffffffffffffffffffffffffffffffffffff191614915050611f27565b600190505b949350505050565b600073ffffffffffffffffffffffffffffffffffffffff168273ffffffffffffffffffffffffffffffffffffffff161415611f9f576040517f08c379a0000000000000000000000000000000000000000000000000000000008152600401611f9690612c23565b60405180910390fd5b611fa881610c72565b15611fe8576040517f08c379a0000000000000000000000000000000000000000000000000000000008152600401611fdf90612b43565b60405180910390fd5b611ff4600083836119cd565b6001600360008473ffffffffffffffffffffffffffffffffffffffff1673ffffffffffffffffffffffffffffffffffffffff16815260200190815260200160002060008282546120449190612dc8565b92505081905550816002600083815260200190815260200160002060006101000a81548173ffffffffffffffffffffffffffffffffffffffff021916908373ffffffffffffffffffffffffffffffffffffffff160217905550808273ffffffffffffffffffffffffffffffffffffffff16600073ffffffffffffffffffffffffffffffffffffffff167fddf252ad1be2c89b69c2b068fc378daa952ba7f163c4a11628f55a4df523b3ef60405160405180910390a45050565b600080823b905060008111915050919050565b82805461211c90612f93565b90600052602060002090601f01602090048101928261213e5760008555612185565b82601f1061215757805160ff1916838001178555612185565b82800160010185558215612185579182015b82811115612184578251825591602001919060010190612169565b5b50905061219291906121be565b5090565b604051806101600160405280600b905b60608152602001906001900390816121a65790505090565b5b808211156121d75760008160009055506001016121bf565b5090565b60006121ee6121e984612d23565b612cfe565b90508281526020810184848401111561220657600080fd5b612211848285612f51565b509392505050565b600061222c61222784612d54565b612cfe565b90508281526020810184848401111561224457600080fd5b61224f848285612f51565b509392505050565b60008135905061226681613610565b92915050565b60008135905061227b81613627565b92915050565b6000813590506122908161363e565b92915050565b6000815190506122a58161363e565b92915050565b600082601f8301126122bc57600080fd5b81356122cc8482602086016121db565b91505092915050565b600082601f8301126122e657600080fd5b81356122f6848260208601612219565b91505092915050565b60008135905061230e81613655565b92915050565b60006020828403121561232657600080fd5b600061233484828501612257565b91505092915050565b6000806040838503121561235057600080fd5b600061235e85828601612257565b925050602061236f85828601612257565b9150509250929050565b60008060006060848603121561238e57600080fd5b600061239c86828701612257565b93505060206123ad86828701612257565b92505060406123be868287016122ff565b9150509250925092565b600080600080608085870312156123de57600080fd5b60006123ec87828801612257565b94505060206123fd87828801612257565b935050604061240e878288016122ff565b925050606085013567ffffffffffffffff81111561242b57600080fd5b612437878288016122ab565b91505092959194509250565b6000806040838503121561245657600080fd5b600061246485828601612257565b92505060206124758582860161226c565b9150509250929050565b6000806040838503121561249257600080fd5b60006124a085828601612257565b92505060206124b1858286016122ff565b9150509250929050565b6000602082840312156124cd57600080fd5b60006124db84828501612281565b91505092915050565b6000602082840312156124f657600080fd5b600061250484828501612296565b91505092915050565b60006020828403121561251f57600080fd5b600061252d848285016122ff565b91505092915050565b60008060008060008060c0878903121561254f57600080fd5b600061255d89828a016122ff565b965050602087013567ffffffffffffffff81111561257a57600080fd5b61258689828a016122d5565b955050604087013567ffffffffffffffff8111156125a357600080fd5b6125af89828a016122d5565b945050606087013567ffffffffffffffff8111156125cc57600080fd5b6125d889828a016122d5565b935050608087013567ffffffffffffffff8111156125f557600080fd5b61260189828a016122d5565b92505060a087013567ffffffffffffffff81111561261e57600080fd5b61262a89828a016122d5565b9150509295509295509295565b61264081612edd565b82525050565b61264f81612eef565b82525050565b600061266082612d85565b61266a8185612d9b565b935061267a818560208601612f60565b6126838161312c565b840191505092915050565b600061269982612d90565b6126a38185612dac565b93506126b3818560208601612f60565b6126bc8161312c565b840191505092915050565b60006126d282612d90565b6126dc8185612dbd565b93506126ec818560208601612f60565b80840191505092915050565b6000612705600f83612dac565b91506127108261313d565b602082019050919050565b6000612728603283612dac565b915061273382613166565b604082019050919050565b600061274b601c83612dac565b9150612756826131b5565b602082019050919050565b600061276e601283612dbd565b9150612779826131de565b601282019050919050565b6000612791602483612dac565b915061279c82613207565b604082019050919050565b60006127b4601983612dac565b91506127bf82613256565b602082019050919050565b60006127d7603e83612dbd565b91506127e28261327f565b603e82019050919050565b60006127fa602c83612dac565b9150612805826132ce565b604082019050919050565b600061281d603883612dac565b91506128288261331d565b604082019050919050565b6000612840602a83612dac565b915061284b8261336c565b604082019050919050565b6000612863602983612dac565b915061286e826133bb565b604082019050919050565b6000612886600283612dbd565b91506128918261340a565b600282019050919050565b60006128a9602083612dac565b91506128b482613433565b602082019050919050565b60006128cc602c83612dac565b91506128d78261345c565b604082019050919050565b60006128ef602983612dac565b91506128fa826134ab565b604082019050919050565b6000612912602183612dac565b915061291d826134fa565b604082019050919050565b6000612935601d83612dbd565b915061294082613549565b601d82019050919050565b6000612958602b83612dac565b915061296382613572565b604082019050919050565b600061297b603183612dac565b9150612986826135c1565b604082019050919050565b61299a81612f47565b82525050565b60006129ac82896126c7565b91506129b882886126c7565b91506129c482876126c7565b91506129d082866126c7565b91506129dc82856126c7565b91506129e882846126c7565b9150819050979650505050505050565b6000612a0382612761565b9150612a0f82856126c7565b9150612a1a826127ca565b9150612a2682846126c7565b9150612a3182612879565b91508190509392505050565b6000612a4882612928565b9150612a5482846126c7565b915081905092915050565b6000602082019050612a746000830184612637565b92915050565b6000608082019050612a8f6000830187612637565b612a9c6020830186612637565b612aa96040830185612991565b8181036060830152612abb8184612655565b905095945050505050565b6000602082019050612adb6000830184612646565b92915050565b60006020820190508181036000830152612afb818461268e565b905092915050565b60006020820190508181036000830152612b1c816126f8565b9050919050565b60006020820190508181036000830152612b3c8161271b565b9050919050565b60006020820190508181036000830152612b5c8161273e565b9050919050565b60006020820190508181036000830152612b7c81612784565b9050919050565b60006020820190508181036000830152612b9c816127a7565b9050919050565b60006020820190508181036000830152612bbc816127ed565b9050919050565b60006020820190508181036000830152612bdc81612810565b9050919050565b60006020820190508181036000830152612bfc81612833565b9050919050565b60006020820190508181036000830152612c1c81612856565b9050919050565b60006020820190508181036000830152612c3c8161289c565b9050919050565b60006020820190508181036000830152612c5c816128bf565b9050919050565b60006020820190508181036000830152612c7c816128e2565b9050919050565b60006020820190508181036000830152612c9c81612905565b9050919050565b60006020820190508181036000830152612cbc8161294b565b9050919050565b60006020820190508181036000830152612cdc8161296e565b9050919050565b6000602082019050612cf86000830184612991565b92915050565b6000612d08612d19565b9050612d148282612fc5565b919050565b6000604051905090565b600067ffffffffffffffff821115612d3e57612d3d6130fd565b5b612d478261312c565b9050602081019050919050565b600067ffffffffffffffff821115612d6f57612d6e6130fd565b5b612d788261312c565b9050602081019050919050565b600081519050919050565b600081519050919050565b600082825260208201905092915050565b600082825260208201905092915050565b600081905092915050565b6000612dd382612f47565b9150612dde83612f47565b9250827fffffffffffffffffffffffffffffffffffffffffffffffffffffffffffffffff03821115612e1357612e12613070565b5b828201905092915050565b6000612e2982612f47565b9150612e3483612f47565b925082612e4457612e4361309f565b5b828204905092915050565b6000612e5a82612f47565b9150612e6583612f47565b9250817fffffffffffffffffffffffffffffffffffffffffffffffffffffffffffffffff0483118215151615612e9e57612e9d613070565b5b828202905092915050565b6000612eb482612f47565b9150612ebf83612f47565b925082821015612ed257612ed1613070565b5b828203905092915050565b6000612ee882612f27565b9050919050565b60008115159050919050565b60007fffffffff0000000000000000000000000000000000000000000000000000000082169050919050565b600073ffffffffffffffffffffffffffffffffffffffff82169050919050565b6000819050919050565b82818337600083830152505050565b60005b83811015612f7e578082015181840152602081019050612f63565b83811115612f8d576000848401525b50505050565b60006002820490506001821680612fab57607f821691505b60208210811415612fbf57612fbe6130ce565b5b50919050565b612fce8261312c565b810181811067ffffffffffffffff82111715612fed57612fec6130fd565b5b80604052505050565b600061300182612f47565b91507fffffffffffffffffffffffffffffffffffffffffffffffffffffffffffffffff82141561303457613033613070565b5b600182019050919050565b600061304a82612f47565b915061305583612f47565b9250826130655761306461309f565b5b828206905092915050565b7f4e487b7100000000000000000000000000000000000000000000000000000000600052601160045260246000fd5b7f4e487b7100000000000000000000000000000000000000000000000000000000600052601260045260246000fd5b7f4e487b7100000000000000000000000000000000000000000000000000000000600052602260045260246000fd5b7f4e487b7100000000000000000000000000000000000000000000000000000000600052604160045260246000fd5b6000601f19601f8301169050919050565b7f616c6c206e667473206d696e7465640000000000000000000000000000000000600082015250565b7f4552433732313a207472616e7366657220746f206e6f6e20455243373231526560008201527f63656976657220696d706c656d656e7465720000000000000000000000000000602082015250565b7f4552433732313a20746f6b656e20616c7265616479206d696e74656400000000600082015250565b7f7b226e616d65223a2022506c6179657220230000000000000000000000000000600082015250565b7f4552433732313a207472616e7366657220746f20746865207a65726f2061646460008201527f7265737300000000000000000000000000000000000000000000000000000000602082015250565b7f4552433732313a20617070726f766520746f2063616c6c657200000000000000600082015250565b7f222c20226465736372697074696f6e223a202274657374222c2022696d61676560008201527f223a2022646174613a696d6167652f7376672b786d6c3b6261736536342c0000602082015250565b7f4552433732313a206f70657261746f7220717565727920666f72206e6f6e657860008201527f697374656e7420746f6b656e0000000000000000000000000000000000000000602082015250565b7f4552433732313a20617070726f76652063616c6c6572206973206e6f74206f7760008201527f6e6572206e6f7220617070726f76656420666f7220616c6c0000000000000000602082015250565b7f4552433732313a2062616c616e636520717565727920666f7220746865207a6560008201527f726f206164647265737300000000000000000000000000000000000000000000602082015250565b7f4552433732313a206f776e657220717565727920666f72206e6f6e657869737460008201527f656e7420746f6b656e0000000000000000000000000000000000000000000000602082015250565b7f227d000000000000000000000000000000000000000000000000000000000000600082015250565b7f4552433732313a206d696e7420746f20746865207a65726f2061646472657373600082015250565b7f4552433732313a20617070726f76656420717565727920666f72206e6f6e657860008201527f697374656e7420746f6b656e0000000000000000000000000000000000000000602082015250565b7f4552433732313a207472616e73666572206f6620746f6b656e2074686174206960008201527f73206e6f74206f776e0000000000000000000000000000000000000000000000602082015250565b7f4552433732313a20617070726f76616c20746f2063757272656e74206f776e6560008201527f7200000000000000000000000000000000000000000000000000000000000000602082015250565b7f646174613a6170706c69636174696f6e2f6a736f6e3b6261736536342c000000600082015250565b7f747279696e6720746f206d696e74207769746820616c7265616479206d696e7460008201527f656420746f6b656e206964000000000000000000000000000000000000000000602082015250565b7f4552433732313a207472616e736665722063616c6c6572206973206e6f74206f60008201527f776e6572206e6f7220617070726f766564000000000000000000000000000000602082015250565b61361981612edd565b811461362457600080fd5b50565b61363081612eef565b811461363b57600080fd5b50565b61364781612efb565b811461365257600080fd5b50565b61365e81612f47565b811461366957600080fd5b5056fe3c2f746578743e3c7465787420783d2231302220793d2236302220636c6173733d2262617365223e3c2f746578743e3c7465787420783d2231302220793d2238302220636c6173733d2262617365223e3c2f746578743e3c7465787420783d2231302220793d223130302220636c6173733d2262617365223e3c73766720786d6c6e733d22687474703a2f2f7777772e77332e6f72672f323030302f73766722207072657365727665417370656374526174696f3d22784d696e594d696e206d656574222076696577426f783d223020302033353020333530223e3c7374796c653e2e62617365207b2066696c6c3a2077686974653b20666f6e742d66616d696c793a2073657269663b20666f6e742d73697a653a20313470783b207d3c2f7374796c653e3c726563742077696474683d223130302522206865696768743d2231303025222066696c6c3d22626c61636b22202f3e3c7465787420783d2231302220793d2232302220636c6173733d2262617365223e4142434445464748494a4b4c4d4e4f505152535455565758595a6162636465666768696a6b6c6d6e6f707172737475767778797a303132333435363738392b2f3c2f746578743e3c7465787420783d2231302220793d2234302220636c6173733d2262617365223ea26469706673582212205bd50b39cc3aeb473f287ed99a9d3c1ce7c9c2c82b46daf77b98a74e4412b21e64736f6c63430008040033",
    "linkReferences": {},
    "deployedLinkReferences": {}
}