{
  "_format": "hh-sol-artifact-1",
  "contractName": "nft",
  "sourceName": "contracts/nft.sol",
  "abi": [
    {
      "inputs": [],
      "stateMutability": "nonpayable",
      "type": "constructor"
    },
    {
      "anonymous": false,
      "inputs": [
        {
          "indexed": true,
          "internalType": "address",
          "name": "owner",
          "type": "address"
        },
        {
          "indexed": true,
          "internalType": "address",
          "name": "approved",
          "type": "address"
        },
        {
          "indexed": true,
          "internalType": "uint256",
          "name": "tokenId",
          "type": "uint256"
        }
      ],
      "name": "Approval",
      "type": "event"
    },
    {
      "anonymous": false,
      "inputs": [
        {
          "indexed": true,
          "internalType": "address",
          "name": "owner",
          "type": "address"
        },
        {
          "indexed": true,
          "internalType": "address",
          "name": "operator",
          "type": "address"
        },
        {
          "indexed": false,
          "internalType": "bool",
          "name": "approved",
          "type": "bool"
        }
      ],
      "name": "ApprovalForAll",
      "type": "event"
    },
    {
      "anonymous": false,
      "inputs": [
        {
          "indexed": true,
          "internalType": "address",
          "name": "from",
          "type": "address"
        },
        {
          "indexed": true,
          "internalType": "address",
          "name": "to",
          "type": "address"
        },
        {
          "indexed": true,
          "internalType": "uint256",
          "name": "tokenId",
          "type": "uint256"
        }
      ],
      "name": "Transfer",
      "type": "event"
    },
    {
      "inputs": [
        {
          "internalType": "address",
          "name": "to",
          "type": "address"
        },
        {
          "internalType": "uint256",
          "name": "tokenId",
          "type": "uint256"
        }
      ],
      "name": "approve",
      "outputs": [],
      "stateMutability": "nonpayable",
      "type": "function"
    },
    {
      "inputs": [
        {
          "internalType": "address",
          "name": "owner",
          "type": "address"
        }
      ],
      "name": "balanceOf",
      "outputs": [
        {
          "internalType": "uint256",
          "name": "",
          "type": "uint256"
        }
      ],
      "stateMutability": "view",
      "type": "function"
    },
    {
      "inputs": [
        {
          "internalType": "uint256",
          "name": "tokenId",
          "type": "uint256"
        }
      ],
      "name": "getApproved",
      "outputs": [
        {
          "internalType": "address",
          "name": "",
          "type": "address"
        }
      ],
      "stateMutability": "view",
      "type": "function"
    },
    {
      "inputs": [],
      "name": "getCurrentJsonId",
      "outputs": [
        {
          "internalType": "uint256",
          "name": "",
          "type": "uint256"
        }
      ],
      "stateMutability": "view",
      "type": "function"
    },
    {
      "inputs": [
        {
          "internalType": "address",
          "name": "owner",
          "type": "address"
        },
        {
          "internalType": "address",
          "name": "operator",
          "type": "address"
        }
      ],
      "name": "isApprovedForAll",
      "outputs": [
        {
          "internalType": "bool",
          "name": "",
          "type": "bool"
        }
      ],
      "stateMutability": "view",
      "type": "function"
    },
    {
      "inputs": [
        {
          "internalType": "uint256",
          "name": "jsonID",
          "type": "uint256"
        },
        {
          "internalType": "string[]",
          "name": "_array",
          "type": "string[]"
        }
      ],
      "name": "mint",
      "outputs": [
        {
          "internalType": "string",
          "name": "",
          "type": "string"
        }
      ],
      "stateMutability": "nonpayable",
      "type": "function"
    },
    {
      "inputs": [],
      "name": "name",
      "outputs": [
        {
          "internalType": "string",
          "name": "",
          "type": "string"
        }
      ],
      "stateMutability": "view",
      "type": "function"
    },
    {
      "inputs": [
        {
          "internalType": "uint256",
          "name": "tokenId",
          "type": "uint256"
        }
      ],
      "name": "ownerOf",
      "outputs": [
        {
          "internalType": "address",
          "name": "",
          "type": "address"
        }
      ],
      "stateMutability": "view",
      "type": "function"
    },
    {
      "inputs": [
        {
          "internalType": "address",
          "name": "from",
          "type": "address"
        },
        {
          "internalType": "address",
          "name": "to",
          "type": "address"
        },
        {
          "internalType": "uint256",
          "name": "tokenId",
          "type": "uint256"
        }
      ],
      "name": "safeTransferFrom",
      "outputs": [],
      "stateMutability": "nonpayable",
      "type": "function"
    },
    {
      "inputs": [
        {
          "internalType": "address",
          "name": "from",
          "type": "address"
        },
        {
          "internalType": "address",
          "name": "to",
          "type": "address"
        },
        {
          "internalType": "uint256",
          "name": "tokenId",
          "type": "uint256"
        },
        {
          "internalType": "bytes",
          "name": "_data",
          "type": "bytes"
        }
      ],
      "name": "safeTransferFrom",
      "outputs": [],
      "stateMutability": "nonpayable",
      "type": "function"
    },
    {
      "inputs": [
        {
          "internalType": "address",
          "name": "operator",
          "type": "address"
        },
        {
          "internalType": "bool",
          "name": "approved",
          "type": "bool"
        }
      ],
      "name": "setApprovalForAll",
      "outputs": [],
      "stateMutability": "nonpayable",
      "type": "function"
    },
    {
      "inputs": [
        {
          "internalType": "bytes4",
          "name": "interfaceId",
          "type": "bytes4"
        }
      ],
      "name": "supportsInterface",
      "outputs": [
        {
          "internalType": "bool",
          "name": "",
          "type": "bool"
        }
      ],
      "stateMutability": "view",
      "type": "function"
    },
    {
      "inputs": [],
      "name": "symbol",
      "outputs": [
        {
          "internalType": "string",
          "name": "",
          "type": "string"
        }
      ],
      "stateMutability": "view",
      "type": "function"
    },
    {
      "inputs": [
        {
          "internalType": "uint256",
          "name": "_tokenId",
          "type": "uint256"
        },
        {
          "internalType": "string[]",
          "name": "_array",
          "type": "string[]"
        }
      ],
      "name": "test",
      "outputs": [
        {
          "internalType": "string",
          "name": "",
          "type": "string"
        }
      ],
      "stateMutability": "pure",
      "type": "function"
    },
    {
      "inputs": [
        {
          "internalType": "uint256",
          "name": "tokenId",
          "type": "uint256"
        }
      ],
      "name": "tokenURI",
      "outputs": [
        {
          "internalType": "string",
          "name": "",
          "type": "string"
        }
      ],
      "stateMutability": "view",
      "type": "function"
    },
    {
      "inputs": [
        {
          "internalType": "address",
          "name": "from",
          "type": "address"
        },
        {
          "internalType": "address",
          "name": "to",
          "type": "address"
        },
        {
          "internalType": "uint256",
          "name": "tokenId",
          "type": "uint256"
        }
      ],
      "name": "transferFrom",
      "outputs": [],
      "stateMutability": "nonpayable",
      "type": "function"
    }
  ],
  "bytecode": "0x608060405260016006553480156200001657600080fd5b506040518060400160405280600d81526020017f43727970746f61647a4c6f6f74000000000000000000000000000000000000008152506040518060400160405280600281526020017f434c00000000000000000000000000000000000000000000000000000000000081525081600090805190602001906200009b929190620000bd565b508060019080519060200190620000b4929190620000bd565b505050620001d2565b828054620000cb906200016d565b90600052602060002090601f016020900481019282620000ef57600085556200013b565b82601f106200010a57805160ff19168380011785556200013b565b828001600101855582156200013b579182015b828111156200013a5782518255916020019190600101906200011d565b5b5090506200014a91906200014e565b5090565b5b80821115620001695760008160009055506001016200014f565b5090565b600060028204905060018216806200018657607f821691505b602082108114156200019d576200019c620001a3565b5b50919050565b7f4e487b7100000000000000000000000000000000000000000000000000000000600052602260045260246000fd5b613d4d80620001e26000396000f3fe608060405234801561001057600080fd5b50600436106101005760003560e01c806370a0823111610097578063b88d4fde11610066578063b88d4fde146102bf578063c87b56dd146102db578063e985e9c51461030b578063ef4d63c71461033b57610100565b806370a08231146102255780638a1bbf861461025557806395d89b4114610285578063a22cb465146102a357610100565b8063095ea7b3116100d3578063095ea7b3146101a157806323b872dd146101bd57806342842e0e146101d95780636352211e146101f557610100565b806301ffc9a71461010557806305974a821461013557806306fdde0314610153578063081812fc14610171575b600080fd5b61011f600480360381019061011a919061299d565b61036b565b60405161012c9190612f15565b60405180910390f35b61013d61044d565b60405161014a9190613132565b60405180910390f35b61015b610457565b6040516101689190612f30565b60405180910390f35b61018b600480360381019061018691906129ef565b6104e9565b6040516101989190612eae565b60405180910390f35b6101bb60048036038101906101b69190612961565b61056e565b005b6101d760048036038101906101d2919061285b565b610686565b005b6101f360048036038101906101ee919061285b565b6106e6565b005b61020f600480360381019061020a91906129ef565b610706565b60405161021c9190612eae565b60405180910390f35b61023f600480360381019061023a91906127f6565b6107b8565b60405161024c9190613132565b60405180910390f35b61026f600480360381019061026a9190612a18565b610870565b60405161027c9190612f30565b60405180910390f35b61028d6109f8565b60405161029a9190612f30565b60405180910390f35b6102bd60048036038101906102b89190612925565b610a8a565b005b6102d960048036038101906102d491906128aa565b610aa0565b005b6102f560048036038101906102f091906129ef565b610b02565b6040516103029190612f30565b60405180910390f35b6103256004803603810190610320919061281f565b610ba7565b6040516103329190612f15565b60405180910390f35b61035560048036038101906103509190612a18565b610c3b565b6040516103629190612f30565b60405180910390f35b60007f80ac58cd000000000000000000000000000000000000000000000000000000007bffffffffffffffffffffffffffffffffffffffffffffffffffffffff1916827bffffffffffffffffffffffffffffffffffffffffffffffffffffffff1916148061043657507f5b5e139f000000000000000000000000000000000000000000000000000000007bffffffffffffffffffffffffffffffffffffffffffffffffffffffff1916827bffffffffffffffffffffffffffffffffffffffffffffffffffffffff1916145b80610446575061044582611747565b5b9050919050565b6000600954905090565b6060600080546104669061340e565b80601f01602080910402602001604051908101604052809291908181526020018280546104929061340e565b80156104df5780601f106104b4576101008083540402835291602001916104df565b820191906000526020600020905b8154815290600101906020018083116104c257829003601f168201915b5050505050905090565b60006104f4826117b1565b610533576040517f08c379a000000000000000000000000000000000000000000000000000000000815260040161052a90613092565b60405180910390fd5b6004600083815260200190815260200160002060009054906101000a900473ffffffffffffffffffffffffffffffffffffffff169050919050565b600061057982610706565b90508073ffffffffffffffffffffffffffffffffffffffff168373ffffffffffffffffffffffffffffffffffffffff1614156105ea576040517f08c379a00000000000000000000000000000000000000000000000000000000081526004016105e1906130d2565b60405180910390fd5b8073ffffffffffffffffffffffffffffffffffffffff1661060961181d565b73ffffffffffffffffffffffffffffffffffffffff16148061063857506106378161063261181d565b610ba7565b5b610677576040517f08c379a000000000000000000000000000000000000000000000000000000000815260040161066e90613012565b60405180910390fd5b6106818383611825565b505050565b61069761069161181d565b826118de565b6106d6576040517f08c379a00000000000000000000000000000000000000000000000000000000081526004016106cd90613112565b60405180910390fd5b6106e18383836119bc565b505050565b61070183838360405180602001604052806000815250610aa0565b505050565b6000806002600084815260200190815260200160002060009054906101000a900473ffffffffffffffffffffffffffffffffffffffff169050600073ffffffffffffffffffffffffffffffffffffffff168173ffffffffffffffffffffffffffffffffffffffff1614156107af576040517f08c379a00000000000000000000000000000000000000000000000000000000081526004016107a690613052565b60405180910390fd5b80915050919050565b60008073ffffffffffffffffffffffffffffffffffffffff168273ffffffffffffffffffffffffffffffffffffffff161415610829576040517f08c379a000000000000000000000000000000000000000000000000000000000815260040161082090613032565b60405180910390fd5b600360008373ffffffffffffffffffffffffffffffffffffffff1673ffffffffffffffffffffffffffffffffffffffff168152602001908152602001600020549050919050565b606060016008600085815260200190815260200160002060006101000a81548160ff02191690831515021790556108dc576040517f08c379a00000000000000000000000000000000000000000000000000000000081526004016108d3906130f2565b60405180910390fd5b6001600654101580156108f25750611b72600654105b610931576040517f08c379a000000000000000000000000000000000000000000000000000000000815260040161092890612f52565b60405180910390fd5b611b38831115610976576040517f08c379a000000000000000000000000000000000000000000000000000000000815260040161096d90612f52565b60405180910390fd5b600061098460065484610c3b565b905061099961099161181d565b600654611c18565b8060076000600654815260200190815260200160002090805190602001906109c2929190612542565b50600660008154809291906109d690613471565b91905055506001846109e89190613243565b6009819055508091505092915050565b606060018054610a079061340e565b80601f0160208091040260200160405190810160405280929190818152602001828054610a339061340e565b8015610a805780601f10610a5557610100808354040283529160200191610a80565b820191906000526020600020905b815481529060010190602001808311610a6357829003601f168201915b5050505050905090565b610a9c610a9561181d565b8383611c36565b5050565b610ab1610aab61181d565b836118de565b610af0576040517f08c379a0000000000000000000000000000000000000000000000000000000008152600401610ae790613112565b60405180910390fd5b610afc84848484611da3565b50505050565b6060600760008381526020019081526020016000208054610b229061340e565b80601f0160208091040260200160405190810160405280929190818152602001828054610b4e9061340e565b8015610b9b5780601f10610b7057610100808354040283529160200191610b9b565b820191906000526020600020905b815481529060010190602001808311610b7e57829003601f168201915b50505050509050919050565b6000600560008473ffffffffffffffffffffffffffffffffffffffff1673ffffffffffffffffffffffffffffffffffffffff16815260200190815260200160002060008373ffffffffffffffffffffffffffffffffffffffff1673ffffffffffffffffffffffffffffffffffffffff16815260200190815260200160002060009054906101000a900460ff16905092915050565b6060610c456125c8565b60405180610120016040528060fd8152602001613b8a60fd9139816000600f8110610c99577f4e487b7100000000000000000000000000000000000000000000000000000000600052603260045260246000fd5b602002018190525082600081518110610cdb577f4e487b7100000000000000000000000000000000000000000000000000000000600052603260045260246000fd5b6020026020010151816001600f8110610d1d577f4e487b7100000000000000000000000000000000000000000000000000000000600052603260045260246000fd5b6020020181905250604051806060016040528060288152602001613cf060289139816002600f8110610d78577f4e487b7100000000000000000000000000000000000000000000000000000000600052603260045260246000fd5b602002018190525082600181518110610dba577f4e487b7100000000000000000000000000000000000000000000000000000000600052603260045260246000fd5b6020026020010151816003600f8110610dfc577f4e487b7100000000000000000000000000000000000000000000000000000000600052603260045260246000fd5b6020020181905250604051806060016040528060288152602001613ae860289139816004600f8110610e57577f4e487b7100000000000000000000000000000000000000000000000000000000600052603260045260246000fd5b602002018190525082600281518110610e99577f4e487b7100000000000000000000000000000000000000000000000000000000600052603260045260246000fd5b6020026020010151816005600f8110610edb577f4e487b7100000000000000000000000000000000000000000000000000000000600052603260045260246000fd5b6020020181905250604051806060016040528060288152602001613b3960289139816006600f8110610f36577f4e487b7100000000000000000000000000000000000000000000000000000000600052603260045260246000fd5b602002018190525082600381518110610f78577f4e487b7100000000000000000000000000000000000000000000000000000000600052603260045260246000fd5b6020026020010151816007600f8110610fba577f4e487b7100000000000000000000000000000000000000000000000000000000600052603260045260246000fd5b6020020181905250604051806060016040528060298152602001613b6160299139816008600f8110611015577f4e487b7100000000000000000000000000000000000000000000000000000000600052603260045260246000fd5b602002018190525082600481518110611057577f4e487b7100000000000000000000000000000000000000000000000000000000600052603260045260246000fd5b6020026020010151816009600f8110611099577f4e487b7100000000000000000000000000000000000000000000000000000000600052603260045260246000fd5b6020020181905250604051806060016040528060298152602001613b106029913981600a600f81106110f4577f4e487b7100000000000000000000000000000000000000000000000000000000600052603260045260246000fd5b602002018190525082600581518110611136577f4e487b7100000000000000000000000000000000000000000000000000000000600052603260045260246000fd5b602002602001015181600b600f8110611178577f4e487b7100000000000000000000000000000000000000000000000000000000600052603260045260246000fd5b6020020181905250604051806060016040528060298152602001613c876029913981600c600f81106111d3577f4e487b7100000000000000000000000000000000000000000000000000000000600052603260045260246000fd5b602002018190525082600681518110611215577f4e487b7100000000000000000000000000000000000000000000000000000000600052603260045260246000fd5b602002602001015181600d600f8110611257577f4e487b7100000000000000000000000000000000000000000000000000000000600052603260045260246000fd5b60200201819052506040518060400160405280600d81526020017f3c2f746578743e3c2f7376673e0000000000000000000000000000000000000081525081600e600f81106112cf577f4e487b7100000000000000000000000000000000000000000000000000000000600052603260045260246000fd5b60200201819052506000816000600f8110611313577f4e487b7100000000000000000000000000000000000000000000000000000000600052603260045260246000fd5b6020020151826001600f8110611352577f4e487b7100000000000000000000000000000000000000000000000000000000600052603260045260246000fd5b6020020151836002600f8110611391577f4e487b7100000000000000000000000000000000000000000000000000000000600052603260045260246000fd5b6020020151846003600f81106113d0577f4e487b7100000000000000000000000000000000000000000000000000000000600052603260045260246000fd5b6020020151856004600f811061140f577f4e487b7100000000000000000000000000000000000000000000000000000000600052603260045260246000fd5b6020020151866005600f811061144e577f4e487b7100000000000000000000000000000000000000000000000000000000600052603260045260246000fd5b6020020151876006600f811061148d577f4e487b7100000000000000000000000000000000000000000000000000000000600052603260045260246000fd5b6020020151886007600f81106114cc577f4e487b7100000000000000000000000000000000000000000000000000000000600052603260045260246000fd5b60200201516040516020016114e8989796959493929190612dd5565b604051602081830303815290604052905080826008600f8110611534577f4e487b7100000000000000000000000000000000000000000000000000000000600052603260045260246000fd5b6020020151836009600f8110611573577f4e487b7100000000000000000000000000000000000000000000000000000000600052603260045260246000fd5b602002015184600a600f81106115b2577f4e487b7100000000000000000000000000000000000000000000000000000000600052603260045260246000fd5b602002015185600b600f81106115f1577f4e487b7100000000000000000000000000000000000000000000000000000000600052603260045260246000fd5b602002015186600c600f8110611630577f4e487b7100000000000000000000000000000000000000000000000000000000600052603260045260246000fd5b602002015187600d600f811061166f577f4e487b7100000000000000000000000000000000000000000000000000000000600052603260045260246000fd5b602002015188600e600f81106116ae577f4e487b7100000000000000000000000000000000000000000000000000000000600052603260045260246000fd5b60200201516040516020016116ca989796959493929190612dd5565b604051602081830303815290604052905060006117176116e987611dff565b6116f284611fac565b604051602001611703929190612e47565b604051602081830303815290604052611fac565b90508060405160200161172a9190612e8c565b604051602081830303815290604052915081935050505092915050565b60007f01ffc9a7000000000000000000000000000000000000000000000000000000007bffffffffffffffffffffffffffffffffffffffffffffffffffffffff1916827bffffffffffffffffffffffffffffffffffffffffffffffffffffffff1916149050919050565b60008073ffffffffffffffffffffffffffffffffffffffff166002600084815260200190815260200160002060009054906101000a900473ffffffffffffffffffffffffffffffffffffffff1673ffffffffffffffffffffffffffffffffffffffff1614159050919050565b600033905090565b816004600083815260200190815260200160002060006101000a81548173ffffffffffffffffffffffffffffffffffffffff021916908373ffffffffffffffffffffffffffffffffffffffff160217905550808273ffffffffffffffffffffffffffffffffffffffff1661189883610706565b73ffffffffffffffffffffffffffffffffffffffff167f8c5be1e5ebec7d5bd14f71427d1e84f3dd0314c0f7b2291e5b200ac8c7c3b92560405160405180910390a45050565b60006118e9826117b1565b611928576040517f08c379a000000000000000000000000000000000000000000000000000000000815260040161191f90612ff2565b60405180910390fd5b600061193383610706565b90508073ffffffffffffffffffffffffffffffffffffffff168473ffffffffffffffffffffffffffffffffffffffff1614806119a257508373ffffffffffffffffffffffffffffffffffffffff1661198a846104e9565b73ffffffffffffffffffffffffffffffffffffffff16145b806119b357506119b28185610ba7565b5b91505092915050565b8273ffffffffffffffffffffffffffffffffffffffff166119dc82610706565b73ffffffffffffffffffffffffffffffffffffffff1614611a32576040517f08c379a0000000000000000000000000000000000000000000000000000000008152600401611a29906130b2565b60405180910390fd5b600073ffffffffffffffffffffffffffffffffffffffff168273ffffffffffffffffffffffffffffffffffffffff161415611aa2576040517f08c379a0000000000000000000000000000000000000000000000000000000008152600401611a9990612fb2565b60405180910390fd5b611aad83838361216a565b611ab8600082611825565b6001600360008573ffffffffffffffffffffffffffffffffffffffff1673ffffffffffffffffffffffffffffffffffffffff1681526020019081526020016000206000828254611b089190613324565b925050819055506001600360008473ffffffffffffffffffffffffffffffffffffffff1673ffffffffffffffffffffffffffffffffffffffff1681526020019081526020016000206000828254611b5f9190613243565b92505081905550816002600083815260200190815260200160002060006101000a81548173ffffffffffffffffffffffffffffffffffffffff021916908373ffffffffffffffffffffffffffffffffffffffff160217905550808273ffffffffffffffffffffffffffffffffffffffff168473ffffffffffffffffffffffffffffffffffffffff167fddf252ad1be2c89b69c2b068fc378daa952ba7f163c4a11628f55a4df523b3ef60405160405180910390a4505050565b611c3282826040518060200160405280600081525061216f565b5050565b8173ffffffffffffffffffffffffffffffffffffffff168373ffffffffffffffffffffffffffffffffffffffff161415611ca5576040517f08c379a0000000000000000000000000000000000000000000000000000000008152600401611c9c90612fd2565b60405180910390fd5b80600560008573ffffffffffffffffffffffffffffffffffffffff1673ffffffffffffffffffffffffffffffffffffffff16815260200190815260200160002060008473ffffffffffffffffffffffffffffffffffffffff1673ffffffffffffffffffffffffffffffffffffffff16815260200190815260200160002060006101000a81548160ff0219169083151502179055508173ffffffffffffffffffffffffffffffffffffffff168373ffffffffffffffffffffffffffffffffffffffff167f17307eab39ab6107e8899845ad3d59bd9653f200f220920489ca2b5937696c3183604051611d969190612f15565b60405180910390a3505050565b611dae8484846119bc565b611dba848484846121ca565b611df9576040517f08c379a0000000000000000000000000000000000000000000000000000000008152600401611df090612f72565b60405180910390fd5b50505050565b60606000821415611e47576040518060400160405280600181526020017f30000000000000000000000000000000000000000000000000000000000000008152509050611fa7565b600082905060005b60008214611e79578080611e6290613471565b915050600a82611e729190613299565b9150611e4f565b60008167ffffffffffffffff811115611ebb577f4e487b7100000000000000000000000000000000000000000000000000000000600052604160045260246000fd5b6040519080825280601f01601f191660200182016040528015611eed5781602001600182028036833780820191505090505b5090505b60008514611fa057600182611f069190613324565b9150600a85611f1591906134ba565b6030611f219190613243565b60f81b818381518110611f5d577f4e487b7100000000000000000000000000000000000000000000000000000000600052603260045260246000fd5b60200101907effffffffffffffffffffffffffffffffffffffffffffffffffffffffffffff1916908160001a905350600a85611f999190613299565b9450611ef1565b8093505050505b919050565b60606000825190506000811415611fd55760405180602001604052806000815250915050612165565b60006003600283611fe69190613243565b611ff09190613299565b6004611ffc91906132ca565b9050600060208261200d9190613243565b67ffffffffffffffff81111561204c577f4e487b7100000000000000000000000000000000000000000000000000000000600052604160045260246000fd5b6040519080825280601f01601f19166020018201604052801561207e5781602001600182028036833780820191505090505b5090506000604051806060016040528060408152602001613cb0604091399050600181016020830160005b868110156121225760038101905062ffffff818a015116603f8160121c168401518060081b905060ff603f83600c1c1686015116810190508060081b905060ff603f8360061c1686015116810190508060081b905060ff603f831686015116810190508060e01b905080845260048401935050506120a9565b50600386066001811461213c576002811461214c57612157565b613d3d60f01b6002830352612157565b603d60f81b60018303525b508484525050819450505050505b919050565b505050565b6121798383612361565b61218660008484846121ca565b6121c5576040517f08c379a00000000000000000000000000000000000000000000000000000000081526004016121bc90612f72565b60405180910390fd5b505050565b60006121eb8473ffffffffffffffffffffffffffffffffffffffff1661252f565b15612354578373ffffffffffffffffffffffffffffffffffffffff1663150b7a0261221461181d565b8786866040518563ffffffff1660e01b81526004016122369493929190612ec9565b602060405180830381600087803b15801561225057600080fd5b505af192505050801561228157506040513d601f19601f8201168201806040525081019061227e91906129c6565b60015b612304573d80600081146122b1576040519150601f19603f3d011682016040523d82523d6000602084013e6122b6565b606091505b506000815114156122fc576040517f08c379a00000000000000000000000000000000000000000000000000000000081526004016122f390612f72565b60405180910390fd5b805181602001fd5b63150b7a0260e01b7bffffffffffffffffffffffffffffffffffffffffffffffffffffffff1916817bffffffffffffffffffffffffffffffffffffffffffffffffffffffff191614915050612359565b600190505b949350505050565b600073ffffffffffffffffffffffffffffffffffffffff168273ffffffffffffffffffffffffffffffffffffffff1614156123d1576040517f08c379a00000000000000000000000000000000000000000000000000000000081526004016123c890613072565b60405180910390fd5b6123da816117b1565b1561241a576040517f08c379a000000000000000000000000000000000000000000000000000000000815260040161241190612f92565b60405180910390fd5b6124266000838361216a565b6001600360008473ffffffffffffffffffffffffffffffffffffffff1673ffffffffffffffffffffffffffffffffffffffff16815260200190815260200160002060008282546124769190613243565b92505081905550816002600083815260200190815260200160002060006101000a81548173ffffffffffffffffffffffffffffffffffffffff021916908373ffffffffffffffffffffffffffffffffffffffff160217905550808273ffffffffffffffffffffffffffffffffffffffff16600073ffffffffffffffffffffffffffffffffffffffff167fddf252ad1be2c89b69c2b068fc378daa952ba7f163c4a11628f55a4df523b3ef60405160405180910390a45050565b600080823b905060008111915050919050565b82805461254e9061340e565b90600052602060002090601f01602090048101928261257057600085556125b7565b82601f1061258957805160ff19168380011785556125b7565b828001600101855582156125b7579182015b828111156125b657825182559160200191906001019061259b565b5b5090506125c491906125f0565b5090565b604051806101e00160405280600f905b60608152602001906001900390816125d85790505090565b5b808211156126095760008160009055506001016125f1565b5090565b600061262061261b84613172565b61314d565b9050808382526020820190508285602086028201111561263f57600080fd5b60005b8581101561268957813567ffffffffffffffff81111561266157600080fd5b80860161266e89826127b7565b85526020850194506020840193505050600181019050612642565b5050509392505050565b60006126a66126a18461319e565b61314d565b9050828152602081018484840111156126be57600080fd5b6126c98482856133cc565b509392505050565b60006126e46126df846131cf565b61314d565b9050828152602081018484840111156126fc57600080fd5b6127078482856133cc565b509392505050565b60008135905061271e81613a8b565b92915050565b600082601f83011261273557600080fd5b813561274584826020860161260d565b91505092915050565b60008135905061275d81613aa2565b92915050565b60008135905061277281613ab9565b92915050565b60008151905061278781613ab9565b92915050565b600082601f83011261279e57600080fd5b81356127ae848260208601612693565b91505092915050565b600082601f8301126127c857600080fd5b81356127d88482602086016126d1565b91505092915050565b6000813590506127f081613ad0565b92915050565b60006020828403121561280857600080fd5b60006128168482850161270f565b91505092915050565b6000806040838503121561283257600080fd5b60006128408582860161270f565b92505060206128518582860161270f565b9150509250929050565b60008060006060848603121561287057600080fd5b600061287e8682870161270f565b935050602061288f8682870161270f565b92505060406128a0868287016127e1565b9150509250925092565b600080600080608085870312156128c057600080fd5b60006128ce8782880161270f565b94505060206128df8782880161270f565b93505060406128f0878288016127e1565b925050606085013567ffffffffffffffff81111561290d57600080fd5b6129198782880161278d565b91505092959194509250565b6000806040838503121561293857600080fd5b60006129468582860161270f565b92505060206129578582860161274e565b9150509250929050565b6000806040838503121561297457600080fd5b60006129828582860161270f565b9250506020612993858286016127e1565b9150509250929050565b6000602082840312156129af57600080fd5b60006129bd84828501612763565b91505092915050565b6000602082840312156129d857600080fd5b60006129e684828501612778565b91505092915050565b600060208284031215612a0157600080fd5b6000612a0f848285016127e1565b91505092915050565b60008060408385031215612a2b57600080fd5b6000612a39858286016127e1565b925050602083013567ffffffffffffffff811115612a5657600080fd5b612a6285828601612724565b9150509250929050565b612a7581613358565b82525050565b612a848161336a565b82525050565b6000612a9582613200565b612a9f8185613216565b9350612aaf8185602086016133db565b612ab8816135a7565b840191505092915050565b6000612ace8261320b565b612ad88185613227565b9350612ae88185602086016133db565b612af1816135a7565b840191505092915050565b6000612b078261320b565b612b118185613238565b9350612b218185602086016133db565b80840191505092915050565b6000612b3a600f83613227565b9150612b45826135b8565b602082019050919050565b6000612b5d603283613227565b9150612b68826135e1565b604082019050919050565b6000612b80601c83613227565b9150612b8b82613630565b602082019050919050565b6000612ba3601283613238565b9150612bae82613659565b601282019050919050565b6000612bc6602483613227565b9150612bd182613682565b604082019050919050565b6000612be9601983613227565b9150612bf4826136d1565b602082019050919050565b6000612c0c603e83613238565b9150612c17826136fa565b603e82019050919050565b6000612c2f602c83613227565b9150612c3a82613749565b604082019050919050565b6000612c52603883613227565b9150612c5d82613798565b604082019050919050565b6000612c75602a83613227565b9150612c80826137e7565b604082019050919050565b6000612c98602983613227565b9150612ca382613836565b604082019050919050565b6000612cbb600283613238565b9150612cc682613885565b600282019050919050565b6000612cde602083613227565b9150612ce9826138ae565b602082019050919050565b6000612d01602c83613227565b9150612d0c826138d7565b604082019050919050565b6000612d24602983613227565b9150612d2f82613926565b604082019050919050565b6000612d47602183613227565b9150612d5282613975565b604082019050919050565b6000612d6a601d83613238565b9150612d75826139c4565b601d82019050919050565b6000612d8d602b83613227565b9150612d98826139ed565b604082019050919050565b6000612db0603183613227565b9150612dbb82613a3c565b604082019050919050565b612dcf816133c2565b82525050565b6000612de1828b612afc565b9150612ded828a612afc565b9150612df98289612afc565b9150612e058288612afc565b9150612e118287612afc565b9150612e1d8286612afc565b9150612e298285612afc565b9150612e358284612afc565b91508190509998505050505050505050565b6000612e5282612b96565b9150612e5e8285612afc565b9150612e6982612bff565b9150612e758284612afc565b9150612e8082612cae565b91508190509392505050565b6000612e9782612d5d565b9150612ea38284612afc565b915081905092915050565b6000602082019050612ec36000830184612a6c565b92915050565b6000608082019050612ede6000830187612a6c565b612eeb6020830186612a6c565b612ef86040830185612dc6565b8181036060830152612f0a8184612a8a565b905095945050505050565b6000602082019050612f2a6000830184612a7b565b92915050565b60006020820190508181036000830152612f4a8184612ac3565b905092915050565b60006020820190508181036000830152612f6b81612b2d565b9050919050565b60006020820190508181036000830152612f8b81612b50565b9050919050565b60006020820190508181036000830152612fab81612b73565b9050919050565b60006020820190508181036000830152612fcb81612bb9565b9050919050565b60006020820190508181036000830152612feb81612bdc565b9050919050565b6000602082019050818103600083015261300b81612c22565b9050919050565b6000602082019050818103600083015261302b81612c45565b9050919050565b6000602082019050818103600083015261304b81612c68565b9050919050565b6000602082019050818103600083015261306b81612c8b565b9050919050565b6000602082019050818103600083015261308b81612cd1565b9050919050565b600060208201905081810360008301526130ab81612cf4565b9050919050565b600060208201905081810360008301526130cb81612d17565b9050919050565b600060208201905081810360008301526130eb81612d3a565b9050919050565b6000602082019050818103600083015261310b81612d80565b9050919050565b6000602082019050818103600083015261312b81612da3565b9050919050565b60006020820190506131476000830184612dc6565b92915050565b6000613157613168565b90506131638282613440565b919050565b6000604051905090565b600067ffffffffffffffff82111561318d5761318c613578565b5b602082029050602081019050919050565b600067ffffffffffffffff8211156131b9576131b8613578565b5b6131c2826135a7565b9050602081019050919050565b600067ffffffffffffffff8211156131ea576131e9613578565b5b6131f3826135a7565b9050602081019050919050565b600081519050919050565b600081519050919050565b600082825260208201905092915050565b600082825260208201905092915050565b600081905092915050565b600061324e826133c2565b9150613259836133c2565b9250827fffffffffffffffffffffffffffffffffffffffffffffffffffffffffffffffff0382111561328e5761328d6134eb565b5b828201905092915050565b60006132a4826133c2565b91506132af836133c2565b9250826132bf576132be61351a565b5b828204905092915050565b60006132d5826133c2565b91506132e0836133c2565b9250817fffffffffffffffffffffffffffffffffffffffffffffffffffffffffffffffff0483118215151615613319576133186134eb565b5b828202905092915050565b600061332f826133c2565b915061333a836133c2565b92508282101561334d5761334c6134eb565b5b828203905092915050565b6000613363826133a2565b9050919050565b60008115159050919050565b60007fffffffff0000000000000000000000000000000000000000000000000000000082169050919050565b600073ffffffffffffffffffffffffffffffffffffffff82169050919050565b6000819050919050565b82818337600083830152505050565b60005b838110156133f95780820151818401526020810190506133de565b83811115613408576000848401525b50505050565b6000600282049050600182168061342657607f821691505b6020821081141561343a57613439613549565b5b50919050565b613449826135a7565b810181811067ffffffffffffffff8211171561346857613467613578565b5b80604052505050565b600061347c826133c2565b91507fffffffffffffffffffffffffffffffffffffffffffffffffffffffffffffffff8214156134af576134ae6134eb565b5b600182019050919050565b60006134c5826133c2565b91506134d0836133c2565b9250826134e0576134df61351a565b5b828206905092915050565b7f4e487b7100000000000000000000000000000000000000000000000000000000600052601160045260246000fd5b7f4e487b7100000000000000000000000000000000000000000000000000000000600052601260045260246000fd5b7f4e487b7100000000000000000000000000000000000000000000000000000000600052602260045260246000fd5b7f4e487b7100000000000000000000000000000000000000000000000000000000600052604160045260246000fd5b6000601f19601f8301169050919050565b7f616c6c206e667473206d696e7465640000000000000000000000000000000000600082015250565b7f4552433732313a207472616e7366657220746f206e6f6e20455243373231526560008201527f63656976657220696d706c656d656e7465720000000000000000000000000000602082015250565b7f4552433732313a20746f6b656e20616c7265616479206d696e74656400000000600082015250565b7f7b226e616d65223a2022506c6179657220230000000000000000000000000000600082015250565b7f4552433732313a207472616e7366657220746f20746865207a65726f2061646460008201527f7265737300000000000000000000000000000000000000000000000000000000602082015250565b7f4552433732313a20617070726f766520746f2063616c6c657200000000000000600082015250565b7f222c20226465736372697074696f6e223a202274657374222c2022696d61676560008201527f223a2022646174613a696d6167652f7376672b786d6c3b6261736536342c0000602082015250565b7f4552433732313a206f70657261746f7220717565727920666f72206e6f6e657860008201527f697374656e7420746f6b656e0000000000000000000000000000000000000000602082015250565b7f4552433732313a20617070726f76652063616c6c6572206973206e6f74206f7760008201527f6e6572206e6f7220617070726f76656420666f7220616c6c0000000000000000602082015250565b7f4552433732313a2062616c616e636520717565727920666f7220746865207a6560008201527f726f206164647265737300000000000000000000000000000000000000000000602082015250565b7f4552433732313a206f776e657220717565727920666f72206e6f6e657869737460008201527f656e7420746f6b656e0000000000000000000000000000000000000000000000602082015250565b7f227d000000000000000000000000000000000000000000000000000000000000600082015250565b7f4552433732313a206d696e7420746f20746865207a65726f2061646472657373600082015250565b7f4552433732313a20617070726f76656420717565727920666f72206e6f6e657860008201527f697374656e7420746f6b656e0000000000000000000000000000000000000000602082015250565b7f4552433732313a207472616e73666572206f6620746f6b656e2074686174206960008201527f73206e6f74206f776e0000000000000000000000000000000000000000000000602082015250565b7f4552433732313a20617070726f76616c20746f2063757272656e74206f776e6560008201527f7200000000000000000000000000000000000000000000000000000000000000602082015250565b7f646174613a6170706c69636174696f6e2f6a736f6e3b6261736536342c000000600082015250565b7f747279696e6720746f206d696e74207769746820616c7265616479206d696e7460008201527f656420746f6b656e206964000000000000000000000000000000000000000000602082015250565b7f4552433732313a207472616e736665722063616c6c6572206973206e6f74206f60008201527f776e6572206e6f7220617070726f766564000000000000000000000000000000602082015250565b613a9481613358565b8114613a9f57600080fd5b50565b613aab8161336a565b8114613ab657600080fd5b50565b613ac281613376565b8114613acd57600080fd5b50565b613ad9816133c2565b8114613ae457600080fd5b5056fe3c2f746578743e3c7465787420783d2231302220793d2236302220636c6173733d2262617365223e3c2f746578743e3c7465787420783d2231302220793d223132302220636c6173733d2262617365223e3c2f746578743e3c7465787420783d2231302220793d2238302220636c6173733d2262617365223e3c2f746578743e3c7465787420783d2231302220793d223130302220636c6173733d2262617365223e3c73766720786d6c6e733d22687474703a2f2f7777772e77332e6f72672f323030302f73766722207072657365727665417370656374526174696f3d22784d696e594d696e206d656574222076696577426f783d223020302033353020333530223e3c7374796c653e2e62617365207b2066696c6c3a2077686974653b20666f6e742d66616d696c793a2073657269663b20666f6e742d73697a653a20313470783b207d3c2f7374796c653e3c726563742077696474683d223130302522206865696768743d2231303025222066696c6c3d22626c61636b22202f3e3c7465787420783d2231302220793d2232302220636c6173733d2262617365223e3c2f746578743e3c7465787420783d2231302220793d223134302220636c6173733d2262617365223e4142434445464748494a4b4c4d4e4f505152535455565758595a6162636465666768696a6b6c6d6e6f707172737475767778797a303132333435363738392b2f3c2f746578743e3c7465787420783d2231302220793d2234302220636c6173733d2262617365223ea2646970667358221220f65f212a23e40b40424cc857b80ec8f55180a31ba8691fd772ab479ac7db36d164736f6c63430008040033",
  "linkReferences": {},
  "deployedLinkReferences": {}
}