{
  "_format": "hh-sol-artifact-1",
  "contractName": "nft",
  "sourceName": "contracts/nft.sol",
  "abi": [
    {
      "inputs": [],
      "stateMutability": "nonpayable",
      "type": "constructor"
    },
    {
      "anonymous": false,
      "inputs": [
        {
          "indexed": true,
          "internalType": "address",
          "name": "owner",
          "type": "address"
        },
        {
          "indexed": true,
          "internalType": "address",
          "name": "approved",
          "type": "address"
        },
        {
          "indexed": true,
          "internalType": "uint256",
          "name": "tokenId",
          "type": "uint256"
        }
      ],
      "name": "Approval",
      "type": "event"
    },
    {
      "anonymous": false,
      "inputs": [
        {
          "indexed": true,
          "internalType": "address",
          "name": "owner",
          "type": "address"
        },
        {
          "indexed": true,
          "internalType": "address",
          "name": "operator",
          "type": "address"
        },
        {
          "indexed": false,
          "internalType": "bool",
          "name": "approved",
          "type": "bool"
        }
      ],
      "name": "ApprovalForAll",
      "type": "event"
    },
    {
      "anonymous": false,
      "inputs": [
        {
          "indexed": true,
          "internalType": "address",
          "name": "from",
          "type": "address"
        },
        {
          "indexed": true,
          "internalType": "address",
          "name": "to",
          "type": "address"
        },
        {
          "indexed": true,
          "internalType": "uint256",
          "name": "tokenId",
          "type": "uint256"
        }
      ],
      "name": "Transfer",
      "type": "event"
    },
    {
      "inputs": [
        {
          "internalType": "address",
          "name": "to",
          "type": "address"
        },
        {
          "internalType": "uint256",
          "name": "tokenId",
          "type": "uint256"
        }
      ],
      "name": "approve",
      "outputs": [],
      "stateMutability": "nonpayable",
      "type": "function"
    },
    {
      "inputs": [
        {
          "internalType": "address",
          "name": "owner",
          "type": "address"
        }
      ],
      "name": "balanceOf",
      "outputs": [
        {
          "internalType": "uint256",
          "name": "",
          "type": "uint256"
        }
      ],
      "stateMutability": "view",
      "type": "function"
    },
    {
      "inputs": [
        {
          "internalType": "uint256",
          "name": "tokenId",
          "type": "uint256"
        }
      ],
      "name": "getApproved",
      "outputs": [
        {
          "internalType": "address",
          "name": "",
          "type": "address"
        }
      ],
      "stateMutability": "view",
      "type": "function"
    },
    {
      "inputs": [],
      "name": "getCurrentJsonId",
      "outputs": [
        {
          "internalType": "uint256",
          "name": "",
          "type": "uint256"
        }
      ],
      "stateMutability": "view",
      "type": "function"
    },
    {
      "inputs": [
        {
          "internalType": "address",
          "name": "owner",
          "type": "address"
        },
        {
          "internalType": "address",
          "name": "operator",
          "type": "address"
        }
      ],
      "name": "isApprovedForAll",
      "outputs": [
        {
          "internalType": "bool",
          "name": "",
          "type": "bool"
        }
      ],
      "stateMutability": "view",
      "type": "function"
    },
    {
      "inputs": [
        {
          "internalType": "uint256",
          "name": "jsonID",
          "type": "uint256"
        },
        {
          "internalType": "string[]",
          "name": "_array",
          "type": "string[]"
        },
        {
          "internalType": "string",
          "name": "attributes",
          "type": "string"
        }
      ],
      "name": "mint",
      "outputs": [
        {
          "internalType": "string",
          "name": "",
          "type": "string"
        }
      ],
      "stateMutability": "nonpayable",
      "type": "function"
    },
    {
      "inputs": [],
      "name": "name",
      "outputs": [
        {
          "internalType": "string",
          "name": "",
          "type": "string"
        }
      ],
      "stateMutability": "view",
      "type": "function"
    },
    {
      "inputs": [
        {
          "internalType": "uint256",
          "name": "tokenId",
          "type": "uint256"
        }
      ],
      "name": "ownerOf",
      "outputs": [
        {
          "internalType": "address",
          "name": "",
          "type": "address"
        }
      ],
      "stateMutability": "view",
      "type": "function"
    },
    {
      "inputs": [
        {
          "internalType": "address",
          "name": "from",
          "type": "address"
        },
        {
          "internalType": "address",
          "name": "to",
          "type": "address"
        },
        {
          "internalType": "uint256",
          "name": "tokenId",
          "type": "uint256"
        }
      ],
      "name": "safeTransferFrom",
      "outputs": [],
      "stateMutability": "nonpayable",
      "type": "function"
    },
    {
      "inputs": [
        {
          "internalType": "address",
          "name": "from",
          "type": "address"
        },
        {
          "internalType": "address",
          "name": "to",
          "type": "address"
        },
        {
          "internalType": "uint256",
          "name": "tokenId",
          "type": "uint256"
        },
        {
          "internalType": "bytes",
          "name": "_data",
          "type": "bytes"
        }
      ],
      "name": "safeTransferFrom",
      "outputs": [],
      "stateMutability": "nonpayable",
      "type": "function"
    },
    {
      "inputs": [
        {
          "internalType": "address",
          "name": "operator",
          "type": "address"
        },
        {
          "internalType": "bool",
          "name": "approved",
          "type": "bool"
        }
      ],
      "name": "setApprovalForAll",
      "outputs": [],
      "stateMutability": "nonpayable",
      "type": "function"
    },
    {
      "inputs": [
        {
          "internalType": "bytes4",
          "name": "interfaceId",
          "type": "bytes4"
        }
      ],
      "name": "supportsInterface",
      "outputs": [
        {
          "internalType": "bool",
          "name": "",
          "type": "bool"
        }
      ],
      "stateMutability": "view",
      "type": "function"
    },
    {
      "inputs": [],
      "name": "symbol",
      "outputs": [
        {
          "internalType": "string",
          "name": "",
          "type": "string"
        }
      ],
      "stateMutability": "view",
      "type": "function"
    },
    {
      "inputs": [
        {
          "internalType": "uint256",
          "name": "_tokenId",
          "type": "uint256"
        },
        {
          "internalType": "string[]",
          "name": "_array",
          "type": "string[]"
        },
        {
          "internalType": "string",
          "name": "attributes",
          "type": "string"
        }
      ],
      "name": "test",
      "outputs": [
        {
          "internalType": "string",
          "name": "",
          "type": "string"
        }
      ],
      "stateMutability": "pure",
      "type": "function"
    },
    {
      "inputs": [
        {
          "internalType": "uint256",
          "name": "tokenId",
          "type": "uint256"
        }
      ],
      "name": "tokenURI",
      "outputs": [
        {
          "internalType": "string",
          "name": "",
          "type": "string"
        }
      ],
      "stateMutability": "view",
      "type": "function"
    },
    {
      "inputs": [
        {
          "internalType": "address",
          "name": "from",
          "type": "address"
        },
        {
          "internalType": "address",
          "name": "to",
          "type": "address"
        },
        {
          "internalType": "uint256",
          "name": "tokenId",
          "type": "uint256"
        }
      ],
      "name": "transferFrom",
      "outputs": [],
      "stateMutability": "nonpayable",
      "type": "function"
    }
  ],
  "bytecode": "0x608060405260016006553480156200001657600080fd5b506040518060400160405280600d81526020017f43727970746f61647a4c6f6f74000000000000000000000000000000000000008152506040518060400160405280600281526020017f434c00000000000000000000000000000000000000000000000000000000000081525081600090805190602001906200009b929190620000bd565b508060019080519060200190620000b4929190620000bd565b505050620001d2565b828054620000cb906200016d565b90600052602060002090601f016020900481019282620000ef57600085556200013b565b82601f106200010a57805160ff19168380011785556200013b565b828001600101855582156200013b579182015b828111156200013a5782518255916020019190600101906200011d565b5b5090506200014a91906200014e565b5090565b5b80821115620001695760008160009055506001016200014f565b5090565b600060028204905060018216806200018657607f821691505b602082108114156200019d576200019c620001a3565b5b50919050565b7f4e487b7100000000000000000000000000000000000000000000000000000000600052602260045260246000fd5b613da180620001e26000396000f3fe608060405234801561001057600080fd5b50600436106101005760003560e01c80636352211e11610097578063a22cb46511610066578063a22cb465146102d3578063b88d4fde146102ef578063c87b56dd1461030b578063e985e9c51461033b57610100565b80636352211e1461022557806370a082311461025557806377c868e11461028557806395d89b41146102b557610100565b8063095ea7b3116100d3578063095ea7b3146101a157806316c181a3146101bd57806323b872dd146101ed57806342842e0e1461020957610100565b806301ffc9a71461010557806305974a821461013557806306fdde0314610153578063081812fc14610171575b600080fd5b61011f600480360381019061011a91906129a0565b61036b565b60405161012c9190612f43565b60405180910390f35b61013d61044d565b60405161014a9190613160565b60405180910390f35b61015b610457565b6040516101689190612f5e565b60405180910390f35b61018b600480360381019061018691906129f2565b6104e9565b6040516101989190612edc565b60405180910390f35b6101bb60048036038101906101b69190612964565b61056e565b005b6101d760048036038101906101d29190612a1b565b610686565b6040516101e49190612f5e565b60405180910390f35b6102076004803603810190610202919061285e565b611193565b005b610223600480360381019061021e919061285e565b6111f3565b005b61023f600480360381019061023a91906129f2565b611213565b60405161024c9190612edc565b60405180910390f35b61026f600480360381019061026a91906127f9565b6112c5565b60405161027c9190613160565b60405180910390f35b61029f600480360381019061029a9190612a1b565b61137d565b6040516102ac9190612f5e565b60405180910390f35b6102bd611507565b6040516102ca9190612f5e565b60405180910390f35b6102ed60048036038101906102e89190612928565b611599565b005b610309600480360381019061030491906128ad565b6115af565b005b610325600480360381019061032091906129f2565b611611565b6040516103329190612f5e565b60405180910390f35b61035560048036038101906103509190612822565b6116b6565b6040516103629190612f43565b60405180910390f35b60007f80ac58cd000000000000000000000000000000000000000000000000000000007bffffffffffffffffffffffffffffffffffffffffffffffffffffffff1916827bffffffffffffffffffffffffffffffffffffffffffffffffffffffff1916148061043657507f5b5e139f000000000000000000000000000000000000000000000000000000007bffffffffffffffffffffffffffffffffffffffffffffffffffffffff1916827bffffffffffffffffffffffffffffffffffffffffffffffffffffffff1916145b8061044657506104458261174a565b5b9050919050565b6000600954905090565b6060600080546104669061343c565b80601f01602080910402602001604051908101604052809291908181526020018280546104929061343c565b80156104df5780601f106104b4576101008083540402835291602001916104df565b820191906000526020600020905b8154815290600101906020018083116104c257829003601f168201915b5050505050905090565b60006104f4826117b4565b610533576040517f08c379a000000000000000000000000000000000000000000000000000000000815260040161052a906130c0565b60405180910390fd5b6004600083815260200190815260200160002060009054906101000a900473ffffffffffffffffffffffffffffffffffffffff169050919050565b600061057982611213565b90508073ffffffffffffffffffffffffffffffffffffffff168373ffffffffffffffffffffffffffffffffffffffff1614156105ea576040517f08c379a00000000000000000000000000000000000000000000000000000000081526004016105e190613100565b60405180910390fd5b8073ffffffffffffffffffffffffffffffffffffffff16610609611820565b73ffffffffffffffffffffffffffffffffffffffff161480610638575061063781610632611820565b6116b6565b5b610677576040517f08c379a000000000000000000000000000000000000000000000000000000000815260040161066e90613040565b60405180910390fd5b6106818383611828565b505050565b6060610690612545565b60405180610120016040528060fd8152602001613bde60fd9139816000600f81106106e4577f4e487b7100000000000000000000000000000000000000000000000000000000600052603260045260246000fd5b602002018190525083600081518110610726577f4e487b7100000000000000000000000000000000000000000000000000000000600052603260045260246000fd5b6020026020010151816001600f8110610768577f4e487b7100000000000000000000000000000000000000000000000000000000600052603260045260246000fd5b6020020181905250604051806060016040528060288152602001613d4460289139816002600f81106107c3577f4e487b7100000000000000000000000000000000000000000000000000000000600052603260045260246000fd5b602002018190525083600181518110610805577f4e487b7100000000000000000000000000000000000000000000000000000000600052603260045260246000fd5b6020026020010151816003600f8110610847577f4e487b7100000000000000000000000000000000000000000000000000000000600052603260045260246000fd5b6020020181905250604051806060016040528060288152602001613b3c60289139816004600f81106108a2577f4e487b7100000000000000000000000000000000000000000000000000000000600052603260045260246000fd5b6020020181905250836002815181106108e4577f4e487b7100000000000000000000000000000000000000000000000000000000600052603260045260246000fd5b6020026020010151816005600f8110610926577f4e487b7100000000000000000000000000000000000000000000000000000000600052603260045260246000fd5b6020020181905250604051806060016040528060288152602001613b8d60289139816006600f8110610981577f4e487b7100000000000000000000000000000000000000000000000000000000600052603260045260246000fd5b6020020181905250836003815181106109c3577f4e487b7100000000000000000000000000000000000000000000000000000000600052603260045260246000fd5b6020026020010151816007600f8110610a05577f4e487b7100000000000000000000000000000000000000000000000000000000600052603260045260246000fd5b6020020181905250604051806060016040528060298152602001613bb560299139816008600f8110610a60577f4e487b7100000000000000000000000000000000000000000000000000000000600052603260045260246000fd5b602002018190525083600481518110610aa2577f4e487b7100000000000000000000000000000000000000000000000000000000600052603260045260246000fd5b6020026020010151816009600f8110610ae4577f4e487b7100000000000000000000000000000000000000000000000000000000600052603260045260246000fd5b6020020181905250604051806060016040528060298152602001613b646029913981600a600f8110610b3f577f4e487b7100000000000000000000000000000000000000000000000000000000600052603260045260246000fd5b602002018190525083600581518110610b81577f4e487b7100000000000000000000000000000000000000000000000000000000600052603260045260246000fd5b602002602001015181600b600f8110610bc3577f4e487b7100000000000000000000000000000000000000000000000000000000600052603260045260246000fd5b6020020181905250604051806060016040528060298152602001613cdb6029913981600c600f8110610c1e577f4e487b7100000000000000000000000000000000000000000000000000000000600052603260045260246000fd5b602002018190525083600681518110610c60577f4e487b7100000000000000000000000000000000000000000000000000000000600052603260045260246000fd5b602002602001015181600d600f8110610ca2577f4e487b7100000000000000000000000000000000000000000000000000000000600052603260045260246000fd5b60200201819052506040518060400160405280600d81526020017f3c2f746578743e3c2f7376673e0000000000000000000000000000000000000081525081600e600f8110610d1a577f4e487b7100000000000000000000000000000000000000000000000000000000600052603260045260246000fd5b60200201819052506000816000600f8110610d5e577f4e487b7100000000000000000000000000000000000000000000000000000000600052603260045260246000fd5b6020020151826001600f8110610d9d577f4e487b7100000000000000000000000000000000000000000000000000000000600052603260045260246000fd5b6020020151836002600f8110610ddc577f4e487b7100000000000000000000000000000000000000000000000000000000600052603260045260246000fd5b6020020151846003600f8110610e1b577f4e487b7100000000000000000000000000000000000000000000000000000000600052603260045260246000fd5b6020020151856004600f8110610e5a577f4e487b7100000000000000000000000000000000000000000000000000000000600052603260045260246000fd5b6020020151866005600f8110610e99577f4e487b7100000000000000000000000000000000000000000000000000000000600052603260045260246000fd5b6020020151876006600f8110610ed8577f4e487b7100000000000000000000000000000000000000000000000000000000600052603260045260246000fd5b6020020151886007600f8110610f17577f4e487b7100000000000000000000000000000000000000000000000000000000600052603260045260246000fd5b6020020151604051602001610f33989796959493929190612e03565b604051602081830303815290604052905080826008600f8110610f7f577f4e487b7100000000000000000000000000000000000000000000000000000000600052603260045260246000fd5b6020020151836009600f8110610fbe577f4e487b7100000000000000000000000000000000000000000000000000000000600052603260045260246000fd5b602002015184600a600f8110610ffd577f4e487b7100000000000000000000000000000000000000000000000000000000600052603260045260246000fd5b602002015185600b600f811061103c577f4e487b7100000000000000000000000000000000000000000000000000000000600052603260045260246000fd5b602002015186600c600f811061107b577f4e487b7100000000000000000000000000000000000000000000000000000000600052603260045260246000fd5b602002015187600d600f81106110ba577f4e487b7100000000000000000000000000000000000000000000000000000000600052603260045260246000fd5b602002015188600e600f81106110f9577f4e487b7100000000000000000000000000000000000000000000000000000000600052603260045260246000fd5b6020020151604051602001611115989796959493929190612e03565b60405160208183030381529060405290506000611162611134886118e1565b61113d84611a8e565b60405160200161114e929190612e75565b604051602081830303815290604052611a8e565b9050806040516020016111759190612eba565b60405160208183030381529060405291508193505050509392505050565b6111a461119e611820565b82611c4c565b6111e3576040517f08c379a00000000000000000000000000000000000000000000000000000000081526004016111da90613140565b60405180910390fd5b6111ee838383611d2a565b505050565b61120e838383604051806020016040528060008152506115af565b505050565b6000806002600084815260200190815260200160002060009054906101000a900473ffffffffffffffffffffffffffffffffffffffff169050600073ffffffffffffffffffffffffffffffffffffffff168173ffffffffffffffffffffffffffffffffffffffff1614156112bc576040517f08c379a00000000000000000000000000000000000000000000000000000000081526004016112b390613080565b60405180910390fd5b80915050919050565b60008073ffffffffffffffffffffffffffffffffffffffff168273ffffffffffffffffffffffffffffffffffffffff161415611336576040517f08c379a000000000000000000000000000000000000000000000000000000000815260040161132d90613060565b60405180910390fd5b600360008373ffffffffffffffffffffffffffffffffffffffff1673ffffffffffffffffffffffffffffffffffffffff168152602001908152602001600020549050919050565b606060016008600086815260200190815260200160002060006101000a81548160ff02191690831515021790556113e9576040517f08c379a00000000000000000000000000000000000000000000000000000000081526004016113e090613120565b60405180910390fd5b6001600654101580156113ff5750611b72600654105b61143e576040517f08c379a000000000000000000000000000000000000000000000000000000000815260040161143590612f80565b60405180910390fd5b611b38841115611483576040517f08c379a000000000000000000000000000000000000000000000000000000000815260040161147a90612f80565b60405180910390fd5b60006114926006548585610686565b90506114a761149f611820565b600654611f86565b8060076000600654815260200190815260200160002090805190602001906114d092919061256d565b50600660008154809291906114e49061349f565b91905055506001856114f69190613271565b600981905550809150509392505050565b6060600180546115169061343c565b80601f01602080910402602001604051908101604052809291908181526020018280546115429061343c565b801561158f5780601f106115645761010080835404028352916020019161158f565b820191906000526020600020905b81548152906001019060200180831161157257829003601f168201915b5050505050905090565b6115ab6115a4611820565b8383611fa4565b5050565b6115c06115ba611820565b83611c4c565b6115ff576040517f08c379a00000000000000000000000000000000000000000000000000000000081526004016115f690613140565b60405180910390fd5b61160b84848484612111565b50505050565b60606007600083815260200190815260200160002080546116319061343c565b80601f016020809104026020016040519081016040528092919081815260200182805461165d9061343c565b80156116aa5780601f1061167f576101008083540402835291602001916116aa565b820191906000526020600020905b81548152906001019060200180831161168d57829003601f168201915b50505050509050919050565b6000600560008473ffffffffffffffffffffffffffffffffffffffff1673ffffffffffffffffffffffffffffffffffffffff16815260200190815260200160002060008373ffffffffffffffffffffffffffffffffffffffff1673ffffffffffffffffffffffffffffffffffffffff16815260200190815260200160002060009054906101000a900460ff16905092915050565b60007f01ffc9a7000000000000000000000000000000000000000000000000000000007bffffffffffffffffffffffffffffffffffffffffffffffffffffffff1916827bffffffffffffffffffffffffffffffffffffffffffffffffffffffff1916149050919050565b60008073ffffffffffffffffffffffffffffffffffffffff166002600084815260200190815260200160002060009054906101000a900473ffffffffffffffffffffffffffffffffffffffff1673ffffffffffffffffffffffffffffffffffffffff1614159050919050565b600033905090565b816004600083815260200190815260200160002060006101000a81548173ffffffffffffffffffffffffffffffffffffffff021916908373ffffffffffffffffffffffffffffffffffffffff160217905550808273ffffffffffffffffffffffffffffffffffffffff1661189b83611213565b73ffffffffffffffffffffffffffffffffffffffff167f8c5be1e5ebec7d5bd14f71427d1e84f3dd0314c0f7b2291e5b200ac8c7c3b92560405160405180910390a45050565b60606000821415611929576040518060400160405280600181526020017f30000000000000000000000000000000000000000000000000000000000000008152509050611a89565b600082905060005b6000821461195b5780806119449061349f565b915050600a8261195491906132c7565b9150611931565b60008167ffffffffffffffff81111561199d577f4e487b7100000000000000000000000000000000000000000000000000000000600052604160045260246000fd5b6040519080825280601f01601f1916602001820160405280156119cf5781602001600182028036833780820191505090505b5090505b60008514611a82576001826119e89190613352565b9150600a856119f791906134e8565b6030611a039190613271565b60f81b818381518110611a3f577f4e487b7100000000000000000000000000000000000000000000000000000000600052603260045260246000fd5b60200101907effffffffffffffffffffffffffffffffffffffffffffffffffffffffffffff1916908160001a905350600a85611a7b91906132c7565b94506119d3565b8093505050505b919050565b60606000825190506000811415611ab75760405180602001604052806000815250915050611c47565b60006003600283611ac89190613271565b611ad291906132c7565b6004611ade91906132f8565b90506000602082611aef9190613271565b67ffffffffffffffff811115611b2e577f4e487b7100000000000000000000000000000000000000000000000000000000600052604160045260246000fd5b6040519080825280601f01601f191660200182016040528015611b605781602001600182028036833780820191505090505b5090506000604051806060016040528060408152602001613d04604091399050600181016020830160005b86811015611c045760038101905062ffffff818a015116603f8160121c168401518060081b905060ff603f83600c1c1686015116810190508060081b905060ff603f8360061c1686015116810190508060081b905060ff603f831686015116810190508060e01b90508084526004840193505050611b8b565b506003860660018114611c1e5760028114611c2e57611c39565b613d3d60f01b6002830352611c39565b603d60f81b60018303525b508484525050819450505050505b919050565b6000611c57826117b4565b611c96576040517f08c379a0000000000000000000000000000000000000000000000000000000008152600401611c8d90613020565b60405180910390fd5b6000611ca183611213565b90508073ffffffffffffffffffffffffffffffffffffffff168473ffffffffffffffffffffffffffffffffffffffff161480611d1057508373ffffffffffffffffffffffffffffffffffffffff16611cf8846104e9565b73ffffffffffffffffffffffffffffffffffffffff16145b80611d215750611d2081856116b6565b5b91505092915050565b8273ffffffffffffffffffffffffffffffffffffffff16611d4a82611213565b73ffffffffffffffffffffffffffffffffffffffff1614611da0576040517f08c379a0000000000000000000000000000000000000000000000000000000008152600401611d97906130e0565b60405180910390fd5b600073ffffffffffffffffffffffffffffffffffffffff168273ffffffffffffffffffffffffffffffffffffffff161415611e10576040517f08c379a0000000000000000000000000000000000000000000000000000000008152600401611e0790612fe0565b60405180910390fd5b611e1b83838361216d565b611e26600082611828565b6001600360008573ffffffffffffffffffffffffffffffffffffffff1673ffffffffffffffffffffffffffffffffffffffff1681526020019081526020016000206000828254611e769190613352565b925050819055506001600360008473ffffffffffffffffffffffffffffffffffffffff1673ffffffffffffffffffffffffffffffffffffffff1681526020019081526020016000206000828254611ecd9190613271565b92505081905550816002600083815260200190815260200160002060006101000a81548173ffffffffffffffffffffffffffffffffffffffff021916908373ffffffffffffffffffffffffffffffffffffffff160217905550808273ffffffffffffffffffffffffffffffffffffffff168473ffffffffffffffffffffffffffffffffffffffff167fddf252ad1be2c89b69c2b068fc378daa952ba7f163c4a11628f55a4df523b3ef60405160405180910390a4505050565b611fa0828260405180602001604052806000815250612172565b5050565b8173ffffffffffffffffffffffffffffffffffffffff168373ffffffffffffffffffffffffffffffffffffffff161415612013576040517f08c379a000000000000000000000000000000000000000000000000000000000815260040161200a90613000565b60405180910390fd5b80600560008573ffffffffffffffffffffffffffffffffffffffff1673ffffffffffffffffffffffffffffffffffffffff16815260200190815260200160002060008473ffffffffffffffffffffffffffffffffffffffff1673ffffffffffffffffffffffffffffffffffffffff16815260200190815260200160002060006101000a81548160ff0219169083151502179055508173ffffffffffffffffffffffffffffffffffffffff168373ffffffffffffffffffffffffffffffffffffffff167f17307eab39ab6107e8899845ad3d59bd9653f200f220920489ca2b5937696c31836040516121049190612f43565b60405180910390a3505050565b61211c848484611d2a565b612128848484846121cd565b612167576040517f08c379a000000000000000000000000000000000000000000000000000000000815260040161215e90612fa0565b60405180910390fd5b50505050565b505050565b61217c8383612364565b61218960008484846121cd565b6121c8576040517f08c379a00000000000000000000000000000000000000000000000000000000081526004016121bf90612fa0565b60405180910390fd5b505050565b60006121ee8473ffffffffffffffffffffffffffffffffffffffff16612532565b15612357578373ffffffffffffffffffffffffffffffffffffffff1663150b7a02612217611820565b8786866040518563ffffffff1660e01b81526004016122399493929190612ef7565b602060405180830381600087803b15801561225357600080fd5b505af192505050801561228457506040513d601f19601f8201168201806040525081019061228191906129c9565b60015b612307573d80600081146122b4576040519150601f19603f3d011682016040523d82523d6000602084013e6122b9565b606091505b506000815114156122ff576040517f08c379a00000000000000000000000000000000000000000000000000000000081526004016122f690612fa0565b60405180910390fd5b805181602001fd5b63150b7a0260e01b7bffffffffffffffffffffffffffffffffffffffffffffffffffffffff1916817bffffffffffffffffffffffffffffffffffffffffffffffffffffffff19161491505061235c565b600190505b949350505050565b600073ffffffffffffffffffffffffffffffffffffffff168273ffffffffffffffffffffffffffffffffffffffff1614156123d4576040517f08c379a00000000000000000000000000000000000000000000000000000000081526004016123cb906130a0565b60405180910390fd5b6123dd816117b4565b1561241d576040517f08c379a000000000000000000000000000000000000000000000000000000000815260040161241490612fc0565b60405180910390fd5b6124296000838361216d565b6001600360008473ffffffffffffffffffffffffffffffffffffffff1673ffffffffffffffffffffffffffffffffffffffff16815260200190815260200160002060008282546124799190613271565b92505081905550816002600083815260200190815260200160002060006101000a81548173ffffffffffffffffffffffffffffffffffffffff021916908373ffffffffffffffffffffffffffffffffffffffff160217905550808273ffffffffffffffffffffffffffffffffffffffff16600073ffffffffffffffffffffffffffffffffffffffff167fddf252ad1be2c89b69c2b068fc378daa952ba7f163c4a11628f55a4df523b3ef60405160405180910390a45050565b600080823b905060008111915050919050565b604051806101e00160405280600f905b60608152602001906001900390816125555790505090565b8280546125799061343c565b90600052602060002090601f01602090048101928261259b57600085556125e2565b82601f106125b457805160ff19168380011785556125e2565b828001600101855582156125e2579182015b828111156125e15782518255916020019190600101906125c6565b5b5090506125ef91906125f3565b5090565b5b8082111561260c5760008160009055506001016125f4565b5090565b600061262361261e846131a0565b61317b565b9050808382526020820190508285602086028201111561264257600080fd5b60005b8581101561268c57813567ffffffffffffffff81111561266457600080fd5b80860161267189826127ba565b85526020850194506020840193505050600181019050612645565b5050509392505050565b60006126a96126a4846131cc565b61317b565b9050828152602081018484840111156126c157600080fd5b6126cc8482856133fa565b509392505050565b60006126e76126e2846131fd565b61317b565b9050828152602081018484840111156126ff57600080fd5b61270a8482856133fa565b509392505050565b60008135905061272181613adf565b92915050565b600082601f83011261273857600080fd5b8135612748848260208601612610565b91505092915050565b60008135905061276081613af6565b92915050565b60008135905061277581613b0d565b92915050565b60008151905061278a81613b0d565b92915050565b600082601f8301126127a157600080fd5b81356127b1848260208601612696565b91505092915050565b600082601f8301126127cb57600080fd5b81356127db8482602086016126d4565b91505092915050565b6000813590506127f381613b24565b92915050565b60006020828403121561280b57600080fd5b600061281984828501612712565b91505092915050565b6000806040838503121561283557600080fd5b600061284385828601612712565b925050602061285485828601612712565b9150509250929050565b60008060006060848603121561287357600080fd5b600061288186828701612712565b935050602061289286828701612712565b92505060406128a3868287016127e4565b9150509250925092565b600080600080608085870312156128c357600080fd5b60006128d187828801612712565b94505060206128e287828801612712565b93505060406128f3878288016127e4565b925050606085013567ffffffffffffffff81111561291057600080fd5b61291c87828801612790565b91505092959194509250565b6000806040838503121561293b57600080fd5b600061294985828601612712565b925050602061295a85828601612751565b9150509250929050565b6000806040838503121561297757600080fd5b600061298585828601612712565b9250506020612996858286016127e4565b9150509250929050565b6000602082840312156129b257600080fd5b60006129c084828501612766565b91505092915050565b6000602082840312156129db57600080fd5b60006129e98482850161277b565b91505092915050565b600060208284031215612a0457600080fd5b6000612a12848285016127e4565b91505092915050565b600080600060608486031215612a3057600080fd5b6000612a3e868287016127e4565b935050602084013567ffffffffffffffff811115612a5b57600080fd5b612a6786828701612727565b925050604084013567ffffffffffffffff811115612a8457600080fd5b612a90868287016127ba565b9150509250925092565b612aa381613386565b82525050565b612ab281613398565b82525050565b6000612ac38261322e565b612acd8185613244565b9350612add818560208601613409565b612ae6816135d5565b840191505092915050565b6000612afc82613239565b612b068185613255565b9350612b16818560208601613409565b612b1f816135d5565b840191505092915050565b6000612b3582613239565b612b3f8185613266565b9350612b4f818560208601613409565b80840191505092915050565b6000612b68600f83613255565b9150612b73826135e6565b602082019050919050565b6000612b8b603283613255565b9150612b968261360f565b604082019050919050565b6000612bae601c83613255565b9150612bb98261365e565b602082019050919050565b6000612bd1601283613266565b9150612bdc82613687565b601282019050919050565b6000612bf4602483613255565b9150612bff826136b0565b604082019050919050565b6000612c17601983613255565b9150612c22826136ff565b602082019050919050565b6000612c3a602c83613255565b9150612c4582613728565b604082019050919050565b6000612c5d603883613255565b9150612c6882613777565b604082019050919050565b6000612c80604c83613266565b9150612c8b826137c6565b604c82019050919050565b6000612ca3602a83613255565b9150612cae8261383b565b604082019050919050565b6000612cc6602983613255565b9150612cd18261388a565b604082019050919050565b6000612ce9600283613266565b9150612cf4826138d9565b600282019050919050565b6000612d0c602083613255565b9150612d1782613902565b602082019050919050565b6000612d2f602c83613255565b9150612d3a8261392b565b604082019050919050565b6000612d52602983613255565b9150612d5d8261397a565b604082019050919050565b6000612d75602183613255565b9150612d80826139c9565b604082019050919050565b6000612d98601d83613266565b9150612da382613a18565b601d82019050919050565b6000612dbb602b83613255565b9150612dc682613a41565b604082019050919050565b6000612dde603183613255565b9150612de982613a90565b604082019050919050565b612dfd816133f0565b82525050565b6000612e0f828b612b2a565b9150612e1b828a612b2a565b9150612e278289612b2a565b9150612e338288612b2a565b9150612e3f8287612b2a565b9150612e4b8286612b2a565b9150612e578285612b2a565b9150612e638284612b2a565b91508190509998505050505050505050565b6000612e8082612bc4565b9150612e8c8285612b2a565b9150612e9782612c73565b9150612ea38284612b2a565b9150612eae82612cdc565b91508190509392505050565b6000612ec582612d8b565b9150612ed18284612b2a565b915081905092915050565b6000602082019050612ef16000830184612a9a565b92915050565b6000608082019050612f0c6000830187612a9a565b612f196020830186612a9a565b612f266040830185612df4565b8181036060830152612f388184612ab8565b905095945050505050565b6000602082019050612f586000830184612aa9565b92915050565b60006020820190508181036000830152612f788184612af1565b905092915050565b60006020820190508181036000830152612f9981612b5b565b9050919050565b60006020820190508181036000830152612fb981612b7e565b9050919050565b60006020820190508181036000830152612fd981612ba1565b9050919050565b60006020820190508181036000830152612ff981612be7565b9050919050565b6000602082019050818103600083015261301981612c0a565b9050919050565b6000602082019050818103600083015261303981612c2d565b9050919050565b6000602082019050818103600083015261305981612c50565b9050919050565b6000602082019050818103600083015261307981612c96565b9050919050565b6000602082019050818103600083015261309981612cb9565b9050919050565b600060208201905081810360008301526130b981612cff565b9050919050565b600060208201905081810360008301526130d981612d22565b9050919050565b600060208201905081810360008301526130f981612d45565b9050919050565b6000602082019050818103600083015261311981612d68565b9050919050565b6000602082019050818103600083015261313981612dae565b9050919050565b6000602082019050818103600083015261315981612dd1565b9050919050565b60006020820190506131756000830184612df4565b92915050565b6000613185613196565b9050613191828261346e565b919050565b6000604051905090565b600067ffffffffffffffff8211156131bb576131ba6135a6565b5b602082029050602081019050919050565b600067ffffffffffffffff8211156131e7576131e66135a6565b5b6131f0826135d5565b9050602081019050919050565b600067ffffffffffffffff821115613218576132176135a6565b5b613221826135d5565b9050602081019050919050565b600081519050919050565b600081519050919050565b600082825260208201905092915050565b600082825260208201905092915050565b600081905092915050565b600061327c826133f0565b9150613287836133f0565b9250827fffffffffffffffffffffffffffffffffffffffffffffffffffffffffffffffff038211156132bc576132bb613519565b5b828201905092915050565b60006132d2826133f0565b91506132dd836133f0565b9250826132ed576132ec613548565b5b828204905092915050565b6000613303826133f0565b915061330e836133f0565b9250817fffffffffffffffffffffffffffffffffffffffffffffffffffffffffffffffff048311821515161561334757613346613519565b5b828202905092915050565b600061335d826133f0565b9150613368836133f0565b92508282101561337b5761337a613519565b5b828203905092915050565b6000613391826133d0565b9050919050565b60008115159050919050565b60007fffffffff0000000000000000000000000000000000000000000000000000000082169050919050565b600073ffffffffffffffffffffffffffffffffffffffff82169050919050565b6000819050919050565b82818337600083830152505050565b60005b8381101561342757808201518184015260208101905061340c565b83811115613436576000848401525b50505050565b6000600282049050600182168061345457607f821691505b6020821081141561346857613467613577565b5b50919050565b613477826135d5565b810181811067ffffffffffffffff82111715613496576134956135a6565b5b80604052505050565b60006134aa826133f0565b91507fffffffffffffffffffffffffffffffffffffffffffffffffffffffffffffffff8214156134dd576134dc613519565b5b600182019050919050565b60006134f3826133f0565b91506134fe836133f0565b92508261350e5761350d613548565b5b828206905092915050565b7f4e487b7100000000000000000000000000000000000000000000000000000000600052601160045260246000fd5b7f4e487b7100000000000000000000000000000000000000000000000000000000600052601260045260246000fd5b7f4e487b7100000000000000000000000000000000000000000000000000000000600052602260045260246000fd5b7f4e487b7100000000000000000000000000000000000000000000000000000000600052604160045260246000fd5b6000601f19601f8301169050919050565b7f616c6c206e667473206d696e7465640000000000000000000000000000000000600082015250565b7f4552433732313a207472616e7366657220746f206e6f6e20455243373231526560008201527f63656976657220696d706c656d656e7465720000000000000000000000000000602082015250565b7f4552433732313a20746f6b656e20616c7265616479206d696e74656400000000600082015250565b7f7b226e616d65223a2022506c6179657220230000000000000000000000000000600082015250565b7f4552433732313a207472616e7366657220746f20746865207a65726f2061646460008201527f7265737300000000000000000000000000000000000000000000000000000000602082015250565b7f4552433732313a20617070726f766520746f2063616c6c657200000000000000600082015250565b7f4552433732313a206f70657261746f7220717565727920666f72206e6f6e657860008201527f697374656e7420746f6b656e0000000000000000000000000000000000000000602082015250565b7f4552433732313a20617070726f76652063616c6c6572206973206e6f74206f7760008201527f6e6572206e6f7220617070726f76656420666f7220616c6c0000000000000000602082015250565b7f222c20226465736372697074696f6e223a202274657374222c2022696d61676560008201527f223a2022646174613a696d6167652f7376672b786d6c3b6261736536342c202260208201527f61747472696275746573223a0000000000000000000000000000000000000000604082015250565b7f4552433732313a2062616c616e636520717565727920666f7220746865207a6560008201527f726f206164647265737300000000000000000000000000000000000000000000602082015250565b7f4552433732313a206f776e657220717565727920666f72206e6f6e657869737460008201527f656e7420746f6b656e0000000000000000000000000000000000000000000000602082015250565b7f227d000000000000000000000000000000000000000000000000000000000000600082015250565b7f4552433732313a206d696e7420746f20746865207a65726f2061646472657373600082015250565b7f4552433732313a20617070726f76656420717565727920666f72206e6f6e657860008201527f697374656e7420746f6b656e0000000000000000000000000000000000000000602082015250565b7f4552433732313a207472616e73666572206f6620746f6b656e2074686174206960008201527f73206e6f74206f776e0000000000000000000000000000000000000000000000602082015250565b7f4552433732313a20617070726f76616c20746f2063757272656e74206f776e6560008201527f7200000000000000000000000000000000000000000000000000000000000000602082015250565b7f646174613a6170706c69636174696f6e2f6a736f6e3b6261736536342c000000600082015250565b7f747279696e6720746f206d696e74207769746820616c7265616479206d696e7460008201527f656420746f6b656e206964000000000000000000000000000000000000000000602082015250565b7f4552433732313a207472616e736665722063616c6c6572206973206e6f74206f60008201527f776e6572206e6f7220617070726f766564000000000000000000000000000000602082015250565b613ae881613386565b8114613af357600080fd5b50565b613aff81613398565b8114613b0a57600080fd5b50565b613b16816133a4565b8114613b2157600080fd5b50565b613b2d816133f0565b8114613b3857600080fd5b5056fe3c2f746578743e3c7465787420783d2231302220793d2236302220636c6173733d2262617365223e3c2f746578743e3c7465787420783d2231302220793d223132302220636c6173733d2262617365223e3c2f746578743e3c7465787420783d2231302220793d2238302220636c6173733d2262617365223e3c2f746578743e3c7465787420783d2231302220793d223130302220636c6173733d2262617365223e3c73766720786d6c6e733d22687474703a2f2f7777772e77332e6f72672f323030302f73766722207072657365727665417370656374526174696f3d22784d696e594d696e206d656574222076696577426f783d223020302033353020333530223e3c7374796c653e2e62617365207b2066696c6c3a2077686974653b20666f6e742d66616d696c793a2073657269663b20666f6e742d73697a653a20313470783b207d3c2f7374796c653e3c726563742077696474683d223130302522206865696768743d2231303025222066696c6c3d22626c61636b22202f3e3c7465787420783d2231302220793d2232302220636c6173733d2262617365223e3c2f746578743e3c7465787420783d2231302220793d223134302220636c6173733d2262617365223e4142434445464748494a4b4c4d4e4f505152535455565758595a6162636465666768696a6b6c6d6e6f707172737475767778797a303132333435363738392b2f3c2f746578743e3c7465787420783d2231302220793d2234302220636c6173733d2262617365223ea2646970667358221220274108e45170aca284bfdca55dc2b792320893727c778dc52ad45fd7f5f32ed764736f6c63430008040033",
  "linkReferences": {},
  "deployedLinkReferences": {}
}